:020000040800F2
:10000000300400209D010008E71100088104000869
:10001000E511000811020008ED14000800000000BE
:10002000000000000000000000000000E5120008D1
:100030001302000800000000E9110008A1130008E5
:10004000B7010008B7010008B7010008B7010008B0
:10005000B7010008B7010008B7010008B7010008A0
:10006000B7010008B7010008B7010008B701000890
:10007000B7010008B7010008B7010008B701000880
:10008000B7010008B7010008B7010008B701000870
:10009000B7010008B7010008B7010008B701000860
:1000A000B7010008B7010008B7010008B701000850
:1000B000B7010008B7010008B7010008B701000840
:1000C000B7010008B7010008B7010008B701000830
:1000D000B7010008B7010008B7010008B701000820
:1000E000B7010008B7010008B7010008B701000810
:1000F000B7010008B7010008B7010008B701000800
:10010000B7010008B7010008B7010008B7010008EF
:10011000B7010008B7010008B7010008B7010008DF
:10012000B7010008B7010008B7010008B7010008CF
:10013000B7010008B7010008B7010008B7010008BF
:10014000B7010008B7010008B7010008B7010008AF
:10015000B7010008B7010008B7010008B70100089F
:10016000B7010008B7010008B7010008B70100088F
:10017000B7010008B7010008B7010008B70100087F
:10018000B7010008B7010008DFF80CD000F02EF826
:1001900000480047DD16000830040020064880476C
:1001A00006480047FEE7FEE7FEE7FEE7FEE7FEE75C
:1001B000FEE7FEE7FEE7FEE7A51300088901000859
:1001C00030B50B46014600202022012409E021FA27
:1001D00002F59D4205D303FA02F5491B04FA02F524
:1001E0002844151EA2F10102F1DC30BD064C074D7A
:1001F00006E0E06840F0010394E8070098471034F7
:10020000AC42F6D3FFF7C4FF242F0008442F0008A8
:10021000FEE7704770B586B00121084600F0E6FFA2
:100220000121102000F0FEFF1E4E07220A21304659
:1002300000F012F907220921304600F00DF90024E0
:100240008DF8164001208DF8170002258DF8145006
:10025000410204918DF8155004A9304600F0BEF813
:100260008DF814506802049004A9304600F0B6F8E6
:100270004FF4E1300090ADF80440ADF80640ADF821
:100280000840ADF80C400C20ADF80A00064C694659
:10029000204601F0C9F80121204601F0B1F806B06E
:1002A00070BD0000000002400010014001B502E0F6
:1002B0000098401E009000980028F9D108BD01B5B3
:1002C00002E00098401E009000980028F9D108BD77
:1002D0008000A0F1C040002904D0016841F0010174
:1002E000016070470168024A1140016070470000D8
:1002F000FEFF0F0070B501688900A1F1C0410B68D5
:10030000344A1340D0E901242243D0E903452C4369
:1003100022434469224384692243C4692243046A14
:100320002243446A2243846A2243C46A2243046B00
:1003300022431A430A608168082907D101688900AD
:10034000A1F1C0410A6842F040020A600168491CFC
:100350008A00A2F1C042116801F04044416BD1E92A
:10036000003543EA05138D688E892D0245EA06455E
:100370002B430D8A43EA05530D7D896943EA0563E2
:100380000B4323431360C16AB1F5804F08D0006866
:100390006FF070418000A0F1C040C0F8041170BD42
:1003A00001688900A1F1C041D1F804210A4B1A402B
:1003B000806BD0E9003443EA041384688589240201
:1003C00044EA05448069234303431343C1F80431DD
:1003D00070BD00008000F7FF0000F0CF2DE9F04174
:1003E000002201274FF0030C07FA02F50B682B409F
:1003F000AB422CD1066853000CFA03F4A643066006
:100400000E79D0F800809E4046EA080606600E7914
:10041000012E01D0022E12D18668A64386604E7945
:10042000D0F808809E4046EA080686604668AE43DB
:10043000466045688E799640B6B235434560C568DA
:10044000A543C560CC799C40C3681C43C460521C62
:10045000102AC9D3BDE8F08110B54B07DB0E9A40D6
:10046000C90800EB8100016A0F249C40A14301628E
:10047000016A1143016210BD4183704701837047D7
:10048000FEE70000054A4FF40041002802D0104664
:10049000FFF7F4BF1046FFF7EFBF00000004024073
:1004A00070B514461D462B46224600F043FB044916
:1004B00004FB05F00989BDE8704000F0D2B90000E6
:1004C0001400002010B5014600F0CCFCC38803489E
:1004D0004288BDE810400020FFF7E2BF1400002072
:1004E00001B502E00098401E009000980028F9D164
:1004F00008BD00002DE9F043203A97B2184EF56888
:10050000AA88EB8802FB03F44FEAE47C04EB5C74FA
:10051000C4F3C7042D6807FB045500F00BFB2C2027
:100520004FF0D04CACF80000002115E00020F3881B
:100530003289802715F8018027FA00F918EA090F97
:1005400002D0ACF8023001E0ACF80220401CC0B28E
:100550000828EFD3491CC9B2A142E7D3BDE8F08314
:1005600014000020F0B505460E4600240F4F19E098
:10057000F8687B8881882144994203D90024C18886
:1005800029448DB2C088B9882844884201D9002402
:10059000002529462046FFF7ADFF761CF8688088C5
:1005A000204484B23278002AE2D1F0BD1400002049
:1005B0002DE9FF4F85B007468846002416B2032078
:1005C000A0EB42000FFA80F994E00898E8B32546C2
:1005D00042E0381908EB050A04901FFA8AF180B24C
:1005E00000F02CFC1FFA8AF1A7EB040A1FFA8AF02C
:1005F00000F024FC08EB040081B2A7EB050B03908C
:100600001FFA8BF000F01AFCA8EB040081B20290F4
:100610001FFA8BF000F012FCA8EB050B1FFA8BF110
:100620001FFA8AF000F00AFC04981FFA8BF180B2DE
:1006300000F004FC029807EB050A81B21FFA8AF069
:1006400000F0FCFB039881B200E008E01FFA8AF09A
:1006500000F0F4FB6D1C2DB2B542BADD37E038195D
:1006600008EB06050190A9B280B200F0E7FBA7EB0A
:10067000040AA9B21FFA8AF000F0E0FB08EB0400BC
:1006800081B2A7EB060B00901FFA8BF000F0D6FBAF
:10069000A8EB0405A9B21FFA8BF000F0CFFBA8EB82
:1006A000060B1FFA8BF11FFA8AF000F0C7FB0198C6
:1006B0001FFA8BF180B200F0C1FBA9B2BD19A8B23C
:1006C00000F0BCFB009881B2A8B200F0B7FB641C3C
:1006D00024B2B9F1000F05DA09EB8400801D0FFA8E
:1006E00080F907E0A01B09EB80000A300FFA80F9BF
:1006F000761E36B2B4427FF768AF09B0BDE8F08F1E
:100700002DE9FE4F00250026171AA3EB01088246AB
:100710008B46681E002F03DD4FF00101019107E0B9
:1007200003D14FF00001019102E00190C7F10007F1
:10073000B8F1000F03DD4FF00100009007E003D196
:100740004FF00000009002E00090C8F1000847451B
:1007500001DD3C4600E044464FF00009601C029079
:1007600017E05946504600F069FB3D444644A54217
:1007700004DD2D1B019850441FFA80FAA64204DDC7
:10078000361B009858441FFA80FB09F101091FFA33
:1007900089F902988145E4DDBDE8FE8F2DE9F0413D
:1007A000064606980F4614461D4600280DD02B46D7
:1007B00022463946304600F0BDF9134904FB05F0E6
:1007C000C988BDE8F04100F04CB83444641EA2B2C0
:1007D0003B4639463046FFF793FF3D446D1EABB2B2
:1007E000A2B2A9B23046FFF78BFFABB23246394610
:1007F0003046FFF785FFABB2A2B2A0B23946BDE8E2
:10080000F041FFF77DBF00001400002000B597B055
:100810000121084600F0F8FC0421019103918806AB
:10082000079000200290049005900690089109908E
:1008300008210A9110210B910C900E900F901090AE
:100840000902119112901390149001A8159016901E
:1008500008A8FFF74FFD01210420FFF739FD17B06D
:1008600000BD10B500222C244FF0D0431C8001E0C5
:100870005980521C8242FBD310BD00002DE9FC5F61
:1008800001213A2000F0B2FC4FF000088DF80680FC
:1008900001248DF8074002258DF8045003208DF8BF
:1008A00005004FF48049CDF8009069467648FFF77F
:1008B00095FD0C220E217448FFF7CEFDE60300964D
:1008C00069467148FFF78AFD0C220F216E48FFF739
:1008D000C3FD009469466C48FFF780FD0C2200219F
:1008E0006948FFF7B9FD009569466748FFF776FD4F
:1008F0000C2201216448FFF7AFFD8020009069467B
:100900006248FFF76BFD0C2207216048FFF7A4FD4A
:100910004FF4807ACDF800A069465C48FFF75EFD91
:100920000C2208215948FFF797FD600200906946A4
:100930005648FFF753FD0C2209215448FFF78CFD60
:100940004FF4806BCDF800B069465048FFF746FD84
:100950000C220A214D48FFF77FFDE7020097694608
:100960004A48FFF73BFD0C220B214848FFF774FD76
:100970002003009069464548FFF730FD0C221146E0
:100980004248FFF769FD6003009069463F48FFF762
:1009900025FD0C220D213D48FFF75EFDCDF80090AE
:1009A00069463A48FFF71AFD0C220E213748FFF737
:1009B00053FD009669463548FFF710FD0C220F21C4
:1009C0003248FFF749FDCDF800A069462E48FFF7F1
:1009D00005FD0C2208212C48FFF73EFD6002009027
:1009E00069462948FFF7FAFC0C2209212648FFF73F
:1009F00033FDCDF800B069462348FFF7EFFC0C2229
:100A00000A212148FFF728FD1020009069461E4862
:100A1000FFF7E4FC0C2204211B48FFF71DFD2020FA
:100A2000009069461848FFF7D9FC0C2205211648AA
:100A3000FFF712FD8020009069461348FFF7CEFCB7
:100A40000C2207211048FFF707FD009769460E4862
:100A5000FFF7C4FC0C220B210B48FFF7FDFC8DF8BF
:100A600004408DF806808DF807408DF805500097FA
:100A700069460748FFF7B2FC009669460548FFF74C
:100A8000ADFCBDE8FC9F0000000C024000100240DD
:100A9000001402400004024010B5072829D8174A64
:100AA0001070C4074FF0F0014FF4A07322D05380B0
:100AB000918036234FF0D0410B80400148802A209E
:100AC00008800020488048805088401EC0F30723DB
:100AD0004B80C0B248802B2008800020488048808E
:100AE0009088401EC0F307224A80C0B248802C2064
:100AF000088010BD51809380DBE7000014000020C7
:100B000010B5FFF7BBFEFFF781FE00F07BF900F0A8
:100B10002DF8074C2078FFF7BFFF0021A3886288DB
:100B20000846FFF7BDFCBDE810400120FFF7AABC56
:100B30001400002030B52A254FF0D0442580050A46
:100B40006580C5B265801044401E020A6280C0B252
:100B500060802B202080080A6080C8B26080C8189E
:100B6000401E010A6180C0B2608030BD70B54FF494
:100B7000A0452846FFF7A3FBFF204FF0D04420807C
:100B8000FF21618098216180062060802846FFF760
:100B900096FBBA202080602060802846FFF78FFBFC
:100BA000BC202080032060800E2060806120608057
:100BB000FF2060800520608060801B206080102006
:100BC00060807320608063206080FF206080608090
:100BD000052060806080002060806080D52060807B
:100BE000D0206080012060800020608040206080F4
:100BF0002846FFF764FBBD2020800121618023216E
:100C00006180452060806721618001206080232011
:100C1000608045206080672060802846FFF74FFB9A
:100C2000BE202080012060802D206080CB2060804D
:100C3000A220608062206080F2206080E2206080DC
:100C40002220608060802846FFF739FBC721218081
:100C5000632161802846FFF732FBED2121807F214F
:100C600061800F216180002060802846FFF727FB0C
:100C7000C0202080032060800B20608000206080E6
:100C80002846FFF71CFBFC202080082060802846B7
:100C9000FFF715FBDF2020800020608060806080EF
:100CA00060806080202060802846FFF708FBF320EA
:100CB0002080742060802846FFF701FBF920208007
:100CC00000206080FD206080802060806080C020E7
:100CD00060802846FFF7F3FAB4202080022060806D
:100CE000608060802846FFF7EAFAF72020808120A4
:100CF00060802846FFF7E3FAB12020800020608062
:100D00001320608060802846FFF7D9FAF221218005
:100D1000C0216180022161804021618028216180A1
:100D20002846FFF7CCFAC12121801720608075206A
:100D300060806080202060802846FFF7C0FAE020B5
:100D400020800020608005206080082060800C20CA
:100D500060800F206080152060800920608007205F
:100D6000608001206080062060800920608016205D
:100D70006080142060803E20608060800020608061
:100D80002846FFF79CFAE12020800020608009209F
:100D90006080122060806080132060801C20608052
:100DA0000720608008206080052060800820608027
:100DB0000320608002206080042060801E2060800C
:100DC0001B206080002060802846FFF778FA3A20D8
:100DD0002080552060802846FFF771FA352020805A
:100DE000002060802846FFF76AFA112020802846FC
:100DF000FFF765FA292020802846BDE87040FFF7FC
:100E00005EBA000070B50A4D4FF4006421462846D2
:100E1000FFF732FB40F6FF263046FFF761FB214625
:100E20002846FFF72BFB3046BDE87040FFF758BB64
:100E30000014024001231A46FFF77CBE10B5084C8F
:100E4000628890420AD2A288914207D2FFF7F2FF4D
:100E5000E188BDE810400120FFF703BD10BD000090
:100E6000140000200148C0687047000014000020F2
:100E7000014AD08011817047140000200149C860E8
:100E800070470000140000200149C880704700002E
:100E9000140000202DE9F04F9BB0DFF8608298F835
:100EA0000000401C88F800009548FFF7E7FF4FF46A
:100EB000784600213046FFF7DBFF924C924D00212F
:100EC00023882A880846FFF7EBFAFFF7CBFF8FA1AC
:100ED0000020FFF747FBFFF7C5FFC0884FF6FF77FD
:100EE00007EA40008DA1FFF73DFBFFF7BBFFC0887D
:100EF00090A100EB400080B2FFF734FBFFF7B2FF98
:100F0000C08891A107EA8000FFF72CFB4FF4FC6733
:100F10003846FFF7B9FF98F8002090A102A800F02A
:100F2000F7FAFFF79FFFC088C0EBC00080B2FFF761
:100F3000C9FAFFF797FFC08802A9C0EBC00080B2D2
:100F4000FFF710FBFFF78EFFC088C0EBC00080B238
:100F5000FFF7B8FA1F20FFF797FFFFF783FFC0885E
:100F600081A1C0EBC00080B2FFF7FCFA3046FFF76A
:100F70008BFF40F213134FF4D27A5246591F32209E
:100F8000FFF7BEFB4FF4967840F277135246414686
:100F90003220FFF7B5FB3846FFF776FF40F2DB194A
:100FA0004B4652464FF4B9713220FFF7A9FB4B462E
:100FB0004FF4C879524649463220FFF7A1FB1F2063
:100FC000FFF762FF40F24513524651463220FFF7C9
:100FD00097FB40F28B1352464FF4E1713220FFF73A
:100FE0008FFB6FF07D4A5046FFF760F920882A8812
:100FF000E03883B2E0210020FFF752FAFFF732FF1A
:10100000C188C1EBC10080B2FFF75CFA1F20FFF777
:101010003BFFFFF727FFC08856A1C0EBC00080B29E
:10102000FFF7A0FA3046FFF72FFF4FF0010B6423C4
:10103000C82241463220CDF800B0FFF7AFFB38465A
:10104000FFF722FF002000907823C8224146642049
:10105000FFF7A4FB1F20FFF717FF9623C822414686
:10106000FA20CDF800B0FFF799FB5046FFF71EF9C4
:1010700020882A88E03883B2E0210020FFF710FAA8
:10108000FFF7F0FEC088C0EBC00080B2FFF71AFA8D
:101090001F20FFF7F9FEFFF7E5FEC08838A1C0EB7F
:1010A000C00080B2FFF75EFA3046FFF7EDFE012385
:1010B0003C2249469620FFF77BFA3846FFF7E4FECC
:1010C00000233C224946FA20FFF772FA1F20FFF75F
:1010D000DBFE01233C2249464FF4AF70FFF768FA6C
:1010E0005046FFF7E3F820882A88E03883B2E021F1
:1010F0000020FFF7D5F91BB0BDE8F08F10000020ED
:10110000240000201800002016000020424820344F
:101110002E3520696E6368204C4344007265736FFE
:101120006C7574696F6E3A3438307838353470784D
:10113000000000004C4344206472697665723A49AD
:101140004C49393830364700546F756368206472F3
:10115000697665723A47543536383800436F756E94
:1011600074203A202564200044726177206C696EF7
:10117000653A00004472617720526563743A00005A
:1011800044726177204369723A0000002DE9FC4106
:101190000121202000F02AF84024009401208DF83D
:1011A000040000218DF806108DF807008DF8051059
:1011B0000B4F69463846FFF711F9802600966946BD
:1011C0003846FFF70BF9A500009569463846FFF74A
:1011D00005F903481830048006800580BDE8FC81CD
:1011E00000140240FEE7704770470000054A0029DE
:1011F00003D0116801431160704711688143116089
:101200007047000030380240054A002903D01168B9
:1012100001431160704711688143116070470000FD
:1012200038380240054A002903D011680143116093
:1012300070471168814311607047000044380240D4
:1012400070B5244B196801F00C01234C00291ED005
:10125000224E04291DD008291DD00460196801F010
:10126000F00109091E4A545C0168E14041601C68B4
:1012700004F4E054A40A145D21FA04F484601B68A9
:1012800003F460435B0BD25CD140C16070BD04606D
:10129000E4E70660E2E70F4A121F1168C1F38055C8
:1012A000116801F03F0135B1B6FBF1F11468C4F3E8
:1012B0008814614305E0B4FBF1F11468C4F38814A9
:1012C00061431268C2F30142521C5200B1FBF2F1B9
:1012D0000160C3E7083802400024F40040787D0133
:1012E00000000020704700000CB50022019200921F
:1012F0002749086840F4803008604FF4A04308682C
:1013000000F4003000900198401C0190009810B942
:1013100001989842F3D10868800302D5012000901B
:1013200000E000920098012831D11948403002684D
:1013300042F0805202601748026842F44042026064
:101340001348083002680260026842F400420260FA
:10135000026842F4A0520260021F0F4B13600A6839
:1013600042F080720A600A689201FCD50B4A40F292
:1013700005711160016821F003010160016841F00D
:10138000020101600168C1F381010229FAD10CBD9B
:10139000003802400070004019544007003C0240F1
:1013A0007047000010B51248016841F470010160F7
:1013B0001048016841F0010101600E4A0021083225
:1013C000116002680C4B1A400260031D0B4A1A6040
:1013D000026822F48022026006480C300160FFF7A8
:1013E00083FF03494FF000608039086010BD0000A2
:1013F00088ED00E000380240FFFFF6FE10300024C8
:10140000002904D0818941F400518181704781898C
:1014100021F40051818170470246002012880A425F
:1014200000D00120704700007FB504460D46208A99
:1014300020F44051E88808432082A08941F20C61E1
:101440008843A9882A8911436A8902431143A181EB
:10145000A08A20F44071A8890843A0826846FFF75B
:10146000EFFE1E48844202D01D48844201D10398F9
:1014700000E00298A189090408D500EBC00101EB46
:10148000001029684900B0FBF1F007E000EBC00153
:1014900001EB001029688900B0FBF1F06422B0FB79
:1014A000F2F109010B096FF018056B4300EB8300A3
:1014B000A3891D044FF0320307D503EBC000B0FB36
:1014C000F2F000F00700084306E003EB0010B0FB69
:1014D000F2F000F00F00084320817FBD00100140B2
:1014E00000140140C1F3080181807047FEE700004D
:1014F0000FB4054B10B503A9044A029800F02CF86C
:1015000010BC5DF814FB0000B91600082C00002088
:101510000FB4084B10B504A902AA039800F01CF8F8
:10152000044602A9002000F0C1F8204610BC5DF876
:1015300014FB0000AD16000802E008C8121F08C125
:10154000002AFAD170477047002001E001C1121F44
:10155000002AFBD1704700002DE9FF4F89B09B4660
:101560000446002506E025280BD05A460B999047E3
:10157000641C6D1C20780028F5D10DB02846BDE80C
:10158000F08F0027B8460122474900E0074314F8CE
:10159000013F203B02FA03F00842F7D120782E28C1
:1015A00019D114F8010F47F004072A280ED06FF064
:1015B0002F022078A0F1300109290CD808EB88010E
:1015C00002EB410100EB0108641CF2E70A98641C7D
:1015D00050F8048B0A9020780028CED0642808D0D8
:1015E000692806D075281ED05A460B9990476D1C65
:1015F00058E00A994FF00A0901C90A91002802DA55
:1016000040422D2102E0390504D52B218DF8201010
:10161000012103E0F90704D02021F7E78A4608AE4C
:101620000DE00021FAE70A994FF00A0901C90A9171
:10163000F7E74946FEF7C4FD303106F8011D0028E2
:10164000F7D1ADEB060000F12009780701D44FF087
:101650000108C84502DDA8EB090000E00020804633
:10166000002706E008A85A46C05D0B9990476D1CFC
:101670007F1C5745F6DB04E030205A460B99904713
:101680006D1CB8F10001A8F10108F5DC05E016F8C1
:10169000010B5A460B9990476D1CB9F10001A9F155
:1016A0000109F4DC641C65E7092801000A68531C81
:1016B0000B6010707047000070B50446064DE1B233
:1016C0002846FFF70FFF80212846FFF7A5FE0028D8
:1016D000F9D0204670BD000000100140FFF756FD14
:1016E000FFF70EFAFEF796FD05A0FFF701FF10A029
:1016F000FFF7FEFE0620FFF7CFF9FFF7CBFBFCE775
:101700000D0A202A2A2A2A2A2A2A2A2A2A20D2BA52
:10171000BEA7C6C1D3A2CEC4CFD4CABEB3CCD0F26A
:101720002A2A2A2A2A2A2A2A2A2A2A200D0A0000B4
:101730000D0A20B1BEB3CCD0F2B2BBD6A7B3D6D679
:10174000D0CEC4A3ACCFD4CABED6D0CEC4B5C4B359
:10175000CCD0F2C7EBD1A7CFB0CFC2D2BBD5C2207D
:101760000D0A000000000000000000000000000062
:101770000000000000000000000000000000000069
:101780000000000000000000000000000000000059
:101790000000000000000000000000000000000049
:1017A0000000000000000000000000000000000039
:1017B000038003800180018001800180018001801D
:1017C0000180018001800180018001800000000013
:1017D000038003C003800000000000000000000040
:1017E00000000000000000000000000000000000F9
:1017F0000E700E700E700E700E700C300C300000FB
:1018000000000000000000000000000000000000D8
:1018100000000000000000000000000000000000C8
:1018200000000000000000000000000000000000B8
:101830000000000006180638063006307FFE7FFEE6
:101840000C300C300C300C307FFE7FFE0C601C60C6
:101850001860186018600000000000000000000020
:10186000000000000000000000000000000000C0B8
:1018700000C000C007F81FF838C031C0318039807F
:101880003D801F8007F001F803BC031C030C031C00
:10189000233C3FF83FE00700060006000000000080
:1018A0000000000000000000000000000000000038
:1018B0001C077E06630C6318633863307E603CE06F
:1018C00000C0018003800338067E0CC61CC618C603
:1018D00030C670EE607C00000000000000000000D8
:1018E00000000000000000000000000000000000F8
:1018F00000000FC01FE018703870387018701CE0BE
:101900000FC00F003F8C3B8C71CC60EC607C70385A
:10191000707C3FFE1FCF00000000000000000000B0
:1019200000000000000000000000000000000000B7
:1019300003C003C00380018001800180018000009A
:101940000000000000000000000000000000000097
:101950000000000000000000000000000000000087
:101960000000000000000000000000000000000077
:101970000030006000E001C00380030007000700A2
:1019800006000E000E000E000E000E000E000600F7
:10199000070007000380038001C000E000700030F2
:1019A0000000000000000000000000000000000037
:1019B0000C000E000700038001C001C000E000E041
:1019C00000600070007000700070007000600060C7
:1019D00000E000E001C001C0038007000E000C0021
:1019E00000000000000000000000000000000000F7
:1019F00001800180018819980FF803C003C01FF807
:101A000019980180018001800000000000000000A2
:101A100000000000000000000000000000000000C6
:101A200000000000000000000000000000000000B6
:101A30000000000000000000000001800180018023
:101A40000180018001807FFE7FFE01800180018096
:101A50000180018000000000000000000000000084
:101A60000000000000000000000000000000000076
:101A70000000000000000000000000000000000066
:101A800000000000000000000000000000000380D3
:101A900003C003C001C001C001C007801F001000C7
:101AA0000000000000000000000000000000000036
:101AB0000000000000000000000000000000000026
:101AC0000000000000000FF00FF000000000000018
:101AD0000000000000000000000000000000000006
:101AE00000000000000000000000000000000000F6
:101AF00000000000000000000000000000000000E6
:101B0000000000000000000000000000000003C012
:101B100003C003C003C0000000000000000000007C
:101B200000000000000000000000000000000000B5
:101B3000001C00180038003000700060006000C019
:101B400000C001C0018003800300070006000E00F2
:101B50000C000C00180018003800300000000000D5
:101B60000000000000000000000000000000000075
:101B70000000000007F01FF81838381C300C303C0B
:101B8000707E71EE73CE7F0E7E0E380C300C381CDA
:101B90001C381FF007E000000000000000000000FB
:101BA0000000000000000000000000000000000035
:101BB0000000000003C00FC03FC039C001C001C019
:101BC00001C001C001C001C001C001C001C001C00D
:101BD00001C03FFC3FFC00000000000000000000CE
:101BE00000000000000000000000000000000000F5
:101BF000000000000FE03FF018380038001800180F
:101C000000380030007000E001C0038007000E00C3
:101C10001C003FFC3FFC0000000000000000000032
:101C200000000000000000000000000000000000B4
:101C3000000000001FE01FF00038003800380038B6
:101C4000007007E007F00078001C001C001C001C5E
:101C500000383FF03FC0000000000000000000001E
:101C60000000000000000000000000000000000074
:101C70000000000000F001F001B003300730063032
:101C80000C301C303830303070307FFE7FFE00303A
:101C900000300030003000000000000000000000B4
:101CA0000000000000000000000000000000000034
:101CB000000000001FF81FF8180018001800180096
:101CC00018001FE01FF80038001C001C001C001842
:101CD00000381FF01FC000000000000000000000DE
:101CE00000000000000000000000000000000000F4
:101CF0000000000001F807F80E001C001800380072
:101D000031C03FF83E3C301C300C300C380C380CE5
:101D10001C1C1FF807E0000000000000000000008D
:101D200000000000000000000000000000000000B3
:101D3000000000003FFC3FFC001C00180038003091
:101D40000070006000E000C001C001800380070057
:101D500007000E000E000000000000000000000060
:101D60000000000000000000000000000000000073
:101D7000000000000FF01E78381C381C381C3C187E
:101D80001E780FE007E01E783C3C381C300C300C0D
:101D9000381C1FF80FF000000000000000000000D9
:101DA0000000000000000000000000000000000033
:101DB000000000000FE01E783838301C701C700CDA
:101DC000300C381C3EFC0FEC001C001C00180038C6
:101DD00000F01FE01F0000000000000000000000F5
:101DE00000000000000000000000000000000000F3
:101DF00000000000000000000000000003C003C05D
:101E000003C001800000000000000000000001800D
:101E100003C003C003C00000000000000000000079
:101E200000000000000000000000000000000000B2
:101E300000000000000000000000000003C003C01C
:101E400003C001800000000000000000000003C08B
:101E500003C003C001C001C001C007800F00000023
:101E60000000000000000000000000000000000072
:101E7000000000000000000000100038007001E0C9
:101E800003C007000E003C001C000E00078001C0CC
:101E900000E00078001000000000000000000000DA
:101EA0000000000000000000000000000000000032
:101EB0000000000000000000000000000000000022
:101EC00000003FFC0000000000003FFC3FFC000061
:101ED0000000000000000000000000000000000002
:101EE00000000000000000000000000000000000F2
:101EF000000000000000000008001C000E000700A9
:101F000003C000E00070003C0038007001E0038076
:101F100007001E0008000000000000000000000094
:101F200000000000000000000000000000000000B1
:101F30000E000FC003E00070003800380038003891
:101F4000007803F003C0030003000300000000005A
:101F500007000780070000000000000000000000EC
:101F60000000000000000000000000000000000071
:101F700001E007F80E1C1C0E18063006300361F352
:101F800063F36633E673CE63CC63CC66CC66CCE693
:101F9000CFFCC73C60006000600030003C301FF0A8
:101FA0000000000000000000000000000000000031
:101FB0000000000003C003C007E006E006600E70EA
:101FC0000C700C301C381838381C3FFC3FFC700E6D
:101FD000700E6006E0070000000000000000000036
:101FE00000000000000000000000000000000000F1
:101FF000000000003FF03FF83838381C381C381813
:1020000038383FF03FF0383C381C380C380C381C5E
:10201000383C3FF83FE000000000000000000000F6
:1020200000000000000000000000000000000000B0
:102030000000000007FC0FFC1E00380038003000D4
:1020400070007000700070007000300038003C00BC
:102050001E040FFC03FC0000000000000000000054
:102060000000000000000000000000000000000070
:10207000000000003FE03FF03038301C300C300EE4
:10208000300E300E300E300E300E300C301C301C46
:1020900030783FF03F8000000000000000000000AA
:1020A0000000000000000000000000000000000030
:1020B000000000001FF81FF8180018001800180092
:1020C00018001FF81FF81800180018001800180052
:1020D00018001FF81FF800000000000000000000BA
:1020E00000000000000000000000000000000000F0
:1020F000000000001FF81FF8180018001800180052
:1021000018001FF81FF81800180018001800180011
:102110001800180018000000000000000000000077
:1021200000000000000000000000000000000000AF
:102130000000000007FC0FFC1C003800300070009D
:10214000700070FC70FC700C700C700C300C380C53
:102150001C0C0FFC07FC0000000000000000000049
:10216000000000000000000000000000000000006F
:1021700000000000300C300C300C300C300C300CF7
:10218000300C3FFC3FFC300C300C300C300C300C71
:10219000300C300C300C000000000000000000008B
:1021A000000000000000000000000000000000002F
:1021B000000000003FFC3FFC0180018001800180A5
:1021C0000180018001800180018001800180018007
:1021D00001803FFC3FFC0000000000000000000008
:1021E00000000000000000000000000000000000EF
:1021F000000000001FF01FF0003000300030003001
:10220000003000300030003000300030003000304E
:1022100010701FE01FC00000000000000000000060
:1022200000000000000000000000000000000000AE
:1022300000000000381C3838387038E038C0398069
:102240003B003F003F003B003B8039C038E0387026
:102250003838383C381C0000000000000000000046
:10226000000000000000000000000000000000006E
:10227000000000001C001C001C001C001C001C00B6
:102280001C001C001C001C001C001C001C001C006E
:102290001C001FFC1FFC00000000000000000000EC
:1022A000000000000000000000000000000000002E
:1022B00000000000381C381C6C3E6C3E6C6E666E74
:1022C000666E67CE63CE63866186600660066006D2
:1022D00060066006600600000000000000000000CC
:1022E00000000000000000000000000000000000EE
:1022F00000000000380C3C0C3C0C3E0C360C370C3B
:10230000330C338C318C31CC30CC30EC306C307CB5
:10231000303C303C301C0000000000000000000099
:1023200000000000000000000000000000000000AD
:10233000000000000FF01FF8381C381C700E700EE3
:10234000700E600660066006700E700E700C381C11
:102350003C381FF80FE00000000000000000000003
:10236000000000000000000000000000000000006D
:10237000000000003FE03FF8383C381C380C380CB7
:10238000380C381C38783FF03FC03800380038002F
:102390003800380038000000000000000000000095
:1023A000000000000000000000000000000000002D
:1023B000000000000FF01FF8381C381C700E700E63
:1023C000700E600660066006700E700E700C381C91
:1023D0003C381FF80FE00180018001E200FF003C63
:1023E00000000000000000000000000000000000ED
:1023F000000000003FE03FF8383838183818381827
:1024000038383FF03FC039E03860387038383838F5
:10241000381C381C380E00000000000000000000CE
:1024200000000000000000000000000000000000AC
:10243000000000000FF81FF83800380030003800A6
:102440001E000F8007F000F8003C001C001C001C60
:10245000003C3FF83FE000000000000000000000EA
:10246000000000000000000000000000000000006C
:10247000000000007FFE7FFE01800180018001805E
:102480000180018001800180018001800180018044
:1024900001800180018000000000000000000000B9
:1024A000000000000000000000000000000000002C
:1024B00000000000300C300C300C300C300C300CB4
:1024C000300C300C300C300C300C300C300C301C1C
:1024D000381C1FF80FE000000000000000000000A2
:1024E00000000000000000000000000000000000EC
:1024F00000000000E0077006700E700E380C381CEB
:1025000038181C181C380C300E700E70066007E06E
:1025100007E003C003C0000000000000000000004E
:1025200000000000000000000000000000000000AB
:102530000000000060066006600660066006600637
:10254000618663C673C673CE76EE366C366C3C7CA1
:102550003C3C3C3C381C0000000000000000000037
:10256000000000000000000000000000000000006B
:1025700000000000700E381C1C381C380E7006E07D
:1025800007E003C003C003C007E00E701C301C3816
:10259000381C701E700E00000000000000000000DB
:1025A000000000000000000000000000000000002B
:1025B00000000000E006700E380C381C1C381C307F
:1025C0000E70066007E003C0018001800180018079
:1025D0000180018001800000000000000000000078
:1025E00000000000000000000000000000000000EB
:1025F000000000003FFC3FFC001C00380070006041
:1026000000E001C00380038007000E000C001C00E6
:1026100038003FFC3FFC000000000000000000000C
:1026200000000000000000000000000000000000AA
:1026300007F007F006000600060006000600060088
:10264000060006000600060006000600060006005A
:10265000060006000600060006000600060007F059
:10266000000000000000000000000000000000006A
:10267000380018001C000C000C00060006000700C3
:1026800003000380018001C000C000E00060006022
:102690000030003000380018001C000C0000000062
:1026A000000000000000000000000000000000002A
:1026B0000FE00FE0006000600060006000600060FC
:1026C000006000600060006000600060006000600A
:1026D00000600060006000600060006000600FE06B
:1026E00000000000000000000000000000000000EA
:1026F00000000000038003C006E006600C301C38B8
:102700001818301C0000000000000000000000004D
:1027100000000000000000000000000000000000B9
:1027200000000000000000000000000000000000A9
:102730000000000000000000000000000000000099
:102740000000000000000000000000000000000089
:10275000000000000000000000000000FFFFFFFF7D
:102760000000000000000000000000000000000069
:102770001C000E00070001800000000000000000A7
:102780000000000000000000000000000000000049
:102790000000000000000000000000000000000039
:1027A0000000000000000000000000000000000029
:1027B0000000000000000000000000001FF01EF8F4
:1027C0000018001C001C07FC1FFC3C1C381C301CA3
:1027D000387C3FFC1FDC000000000000000000000F
:1027E00000000000000000000000000000000000E9
:1027F0003800380038003800380038003BF03FF827
:102800003E1C380C380C380C380C380C380C381C82
:1028100038383FF01FE0000000000000000000001A
:1028200000000000000000000000000000000000A8
:1028300000000000000000000000000003F80FF896
:102840001E001C00380038003800380038001C001A
:102850001E000FF803F80000000000000000000058
:102860000000000000000000000000000000000068
:10287000001C001C001C001C001C001C07FC1FFC92
:10288000181C381C301C301C301C301C301C383CD0
:10289000387C1FDC0F9C00000000000000000000DE
:1028A0000000000000000000000000000000000028
:1028B00000000000000000000000000007F01E788B
:1028C000181C381C300C3FFC3FFC30003000380036
:1028D0001C001FFC07FC00000000000000000000BE
:1028E00000000000000000000000000000000000E8
:1028F000007E01FE03C00380030003000300030009
:102900007FFC7FFC030003000300030003000300BF
:1029100003000300030000000000000000000000AE
:1029200000000000000000000000000000000000A7
:102930000000000000000000000000000FFE1C7EF0
:1029400018383818381838381C781FF03B80300099
:1029500038001FF81FFC300E700E700C3C3C1FF846
:1029600001800000000000000000000000000000E6
:102970003800380038003800380038003BF03FF8A5
:102980003C18381C381C381C381C381C381C381CA7
:10299000381C381C381C000000000000000000003B
:1029A0000000000000000000000000000000000027
:1029B000018003C003C00180000000001FC01FC0D1
:1029C00001C001C001C001C001C001C001C001C0FF
:1029D00001C03FFC3FFC00000000000000000000C0
:1029E00000000000000000000000000000000000E7
:1029F0000060007000700070000000003FF03FF0C9
:102A00000070007000700070007000700070007046
:102A100000700070007000700070006039E03FC00E
:102A200006000000000000000000000000000000A0
:102A3000180018001800180018001800181C183882
:102A4000187019E01BC01F001B8019C019E018F096
:102A50001878183C181E000000000000000000005C
:102A60000000000000000000000000000000000066
:102A70001FC01FC001C001C001C001C001C001C012
:102A800001C001C001C001C001C001C001C001C03E
:102A900001C03FFC3FFC00000000000000000000FF
:102AA0000000000000000000000000000000000026
:102AB0000000000000000000000000006F3C6FEC10
:102AC00079CE71CE718E718E718E718E718E718E86
:102AD000718E718E718E00000000000000000000F9
:102AE00000000000000000000000000000000000E6
:102AF00000000000000000000000000033F03FF87C
:102B00003C18381C381C381C381C381C381C381C25
:102B1000381C381C381C00000000000000000000B9
:102B200000000000000000000000000000000000A5
:102B30000000000000000000000000000FF01FF87F
:102B4000381C300C300C700E700E700E300C381CAF
:102B500038381FF80FE000000000000000000000FF
:102B60000000000000000000000000000000000065
:102B70000000000000000000000000003BF03FF8F3
:102B80003E1C380C380C380C380C380C380C381CFF
:102B900038383FF03FE0380038003800380038005F
:102BA0000000000000000000000000000000000025
:102BB00000000000000000000000000007FC1F7C77
:102BC000181C381C301C301C301C301C301C383C8D
:102BD000387C1FDC0F9C001C001C001C001C001C0F
:102BE00000000000000000000000000000000000E5
:102BF00000000000000000000000000019F81BFCAD
:102C00001E0C1C0C180E18001800180018001800D4
:102C1000180018001800000000000000000000006C
:102C200000000000000000000000000000000000A4
:102C30000000000000000000000000000FF81E3837
:102C4000180018001C000F8007F000F80038001C66
:102C500000181FF81FE00000000000000000000046
:102C60000000000000000000000000000000000064
:102C70000000000006000600060006007FFC7FFC46
:102C80000600060006000600060006000600060014
:102C9000070003FC01FC0000000000000000000031
:102CA0000000000000000000000000000000000024
:102CB000000000000000000000000000381C381C6C
:102CC000381C381C381C381C381C381C381C383C44
:102CD000187C1FFC0F9C000000000000000000009A
:102CE00000000000000000000000000000000000E4
:102CF000000000000000000000000000700E300C1A
:102D0000381C18181C381C300C300E70066007E098
:102D100007C003C003C00000000000000000000066
:102D200000000000000000000000000000000000A3
:102D300000000000000000000000000060066006C7
:102D400060066186718E73CE33CC32EC366C366C95
:102D50003C7C3C3C1C3800000000000000000000EF
:102D60000000000000000000000000000000000063
:102D7000000000000000000000000000381C1C18CB
:102D80001C380E7007E003C003C003C007E00E70DC
:102D90001C38381C781E00000000000000000000F5
:102DA0000000000000000000000000000000000023
:102DB000000000000000000000000000700E300C59
:102DC000381C18181C381C380E300E70066007E0CE
:102DD00003E003C003C00380038007007E007C0083
:102DE00000000000000000000000000000000000E3
:102DF0000000000000000000000000001FF81FF8A5
:102E00000038007000E001C00380030007000E00DE
:102E10001C003FFC3FFC0000000000000000000020
:102E200000000000000000000000000000000000A2
:102E300000F801F801800380038003800380038091
:102E4000038003003F003C000F0003000380038069
:102E500003800380038003800380018001E000F889
:102E600000000000000000000000018001800180DF
:102E7000018001800180018001800180018001804A
:102E8000018001800180018001800180018001803A
:102E9000018001800180018001800180018001802A
:102EA0000000000000000000000000000000000022
:102EB0001E001F80018001C001C001C001C001C00F
:102EC00001C000C000FC003C00E000C001C001C027
:102ED00001C001C001C001C001C0018007801F0006
:102EE00000000000000000000000000000000000E2
:102EF00000000000000000000000000000000000D2
:102F000000001E003F06738661FC60FC00000000AC
:102F100000000000000000000000000000000000B1
:102F200000000000442F00080000002030000000D6
:102F300038150008742F000830000020000400003D
:102F40004815000800000000010203040102030408
:102F5000060708090000000006004001F000FFFF1E
:102F6000000000002400002064170008100020006A
:042F7000000000005D
:040000050800018965
:00000001FF
