:020000040800F2
:10000000202400209D01000827040008C9030008DF
:100010002504000887020008ED0A0008000000001F
:10002000000000000000000000000000E5080008DB
:10003000890200080000000029040008A109000846
:10004000B7010008B7010008B7010008B7010008B0
:10005000B7010008B7010008B7010008B7010008A0
:10006000B7010008B7010008B7010008B701000890
:10007000B7010008B7010008B7010008B701000880
:10008000B7010008B7010008B7010008B701000870
:10009000B7010008B7010008B7010008B701000860
:1000A000B7010008B7010008B7010008B701000850
:1000B000B7010008B7010008B7010008B701000840
:1000C000B7010008B7010008B7010008B701000830
:1000D000B7010008B7010008B7010008B701000820
:1000E000B7010008B7010008B7010008B701000810
:1000F000B7010008B7010008B7010008B701000800
:10010000B7010008B7010008B7010008B7010008EF
:10011000B7010008B7010008B7010008B7010008DF
:10012000B7010008B7010008B7010008B7010008CF
:10013000B7010008B7010008B7010008B7010008BF
:10014000B7010008B7010008B7010008B7010008AF
:10015000B7010008B7010008B7010008B70100089F
:10016000B7010008B7010008B7010008B70100088F
:10017000B7010008B7010008B7010008B70100087F
:10018000B7010008B7010008DFF80CD000F04AF80A
:1001900000480047B90F0008202400200648804787
:1001A00006480047FEE7FEE7FEE7FEE7FEE7FEE75C
:1001B000FEE7FEE7FEE7FEE7A50900088901000863
:1001C0002DE9F05F0546002092469B46884606468C
:1001D000814640241BE0284641464746224600F01F
:1001E00042F853465A46C01A914110D31146184658
:1001F000224600F029F82D1A67EB01084F462246E7
:100200000120002100F020F817EB00094E41201ECC
:10021000A4F10104DFDC484631462A464346BDE8E6
:10022000F09F0000064C074D06E0E06840F0010337
:1002300094E8070098471034AC42F6D3FFF7A8FFC4
:100240008C110008AC110008202A04DB203A00FAC7
:1002500002F1002070479140C2F1200320FA03F31D
:10026000194390407047202A04DB203A21FA02F01B
:100270000021704721FA02F3D040C2F120029140E0
:10028000084319467047FEE77047000070B586B016
:100290000121084600F0CAF80121102000F0D4F82E
:1002A0001E4E07220A21304600F07AF80722092163
:1002B000304600F075F800248DF8164001208DF8C6
:1002C000170002258DF81450410204918DF8155045
:1002D00004A9304600F026F88DF814506802049006
:1002E00004A9304600F01EF84FF4E1300090ADF85C
:1002F0000440ADF80640ADF80840ADF80C400C20C5
:10030000ADF80A00064C6946204600F08DFB01213D
:10031000204600F075FB06B070BD000000000240F2
:10032000001001402DE9F041002201274FF0030C9D
:1003300007FA02F50B682B40AB422CD1066853003C
:100340000CFA03F4A64306600E79D0F800809E40B4
:1003500046EA080606600E79012E01D0022E12D15F
:100360008668A64386604E79D0F808809E4046EAAB
:10037000080686604668AE43466045688E799640BA
:10038000B6B235434560C568A543C560CC799C408D
:10039000C3681C43C460521C102AC9D3BDE8F08155
:1003A00010B54B07DB0E9A40C90800EB8100016ACB
:1003B0000F249C40A1430162016A1143016210BDF8
:1003C0004183704701837047FEE700002DE9FC413F
:1003D0000121042000F02AF84024009401208DF827
:1003E000040000218DF806108DF807008DF8051027
:1003F0000B4F69463846FFF795FF80260096694601
:100400003846FFF78FFFA500009569463846FFF78D
:1004100089FF03481A30048006800580BDE8FC810E
:1004200000080240FEE7704770470000054A0029B7
:1004300003D0116801431160704711688143116056
:100440007047000030380240054A002903D0116887
:1004500001431160704711688143116070470000CB
:100460004438024070B5244B196801F00C01234C4C
:1004700000291ED0224E04291DD008291DD0046059
:10048000196801F0F00109091E4A545C0168E14055
:1004900041601C6804F4E054A40A145D21FA04F4D9
:1004A00084601B6803F460435B0BD25CD140C16085
:1004B00070BD0460E4E70660E2E70F4A121F1168AE
:1004C000C1F38055116801F03F0135B1B6FBF1F180
:1004D0001468C4F38814614305E0B4FBF1F11468B7
:1004E000C4F3881461431268C2F30142521C5200E3
:1004F000B1FBF2F10160C3E7083802400024F400C8
:1005000040787D0100000020002904D0018841F0DE
:10051000400101807047018821F04001018070474F
:100520002DE9F0410746184C4FF480552560174ED1
:1005300009E02068421E226005D2012000F0B2F9D5
:10054000C0B2BDE8F0810221304600F05DF900281C
:10055000EFD03946304600F060F9256008E02168A8
:100560004A1E226004D2012000F09CF9C0B2E8E7E4
:100570000121304600F048F90028F0D0304600F064
:100580004AF9C0B2DDE7000014000020003001404D
:1005900070B5044600F0DAF80E4E4FF48045294657
:1005A0003046FFF70DFF2020FFF7BAFFC4F30740E6
:1005B000FFF7B6FFC4F30720FFF7B2FFE0B2FFF783
:1005C000AFFF29463046FFF7FDFEBDE8704000F062
:1005D00057B800000004024010B500F0CBF8BDE8A9
:1005E000104000F039B900002DE9F04180460C467A
:1005F0001546124F4FF4804631463846FFF7E0FE6D
:100600000320FFF78DFFC8F30740FFF789FFC8F30A
:100610000720FFF785FF08F0FF00FFF781FF04E0E8
:10062000FF20FFF77DFF04F8010B6D1E681CF7D15A
:1006300031463846BDE8F041FFF7C4BE0004024031
:1006400070B50E4D4FF4804421462846FFF7B8FEA2
:10065000AB20FFF765FFFF20FFF762FFFF20FFF7EA
:100660005FFFFF20FFF75CFFFF20FFF759FF064603
:1006700021462846FFF7A6FE304670BD0004024022
:1006800070B5104E4FF4804529463046FFF798FE6E
:100690000520FFF745FF0C4C4FF420402060FF2061
:1006A000FFF73EFFC00706D02068421E2260F6D248
:1006B000032000F0F7F829463046BDE87040FFF708
:1006C00081BE000000040240140000202DE9F04724
:1006D00004460E46174600254FF48048DFF8689020
:1006E00026E06D1C012D04D0E8B2012801D02005C0
:1006F00019D141464846FFF765FEFFF7C1FF00F0FC
:1007000025F841464846FFF75BFE0220FFF708FF49
:10071000C4F30740FFF704FFC4F30720FFF700FF0F
:10072000E0B2FFF7FDFE3078FFF7FAFE761C641C9E
:100730007F1E781CD5D141464846FFF743FEBDE8F1
:10074000F047FFF79DBF00000004024070B5084D60
:100750004FF4804421462846FFF732FE0620FFF77B
:10076000DFFE21462846BDE87040FFF72BBE0000A3
:10077000000402407CB501210803FFF765FE01215A
:100780000320FFF753FE1E4E052211463046FFF7A9
:1007900007FE052206213046FFF702FE052207214B
:1007A0003046FFF7FDFD2020009002258DF8045013
:1007B0008DF8055000248DF806408DF807406946F5
:1007C0003046FFF7AFFD4021009169463046FFF704
:1007D000A9FD8020009069463046FFF7A3FD68031D
:1007E000009001208DF804008DF805508DF806402A
:1007F0008DF8074069460348FFF794FD7CBD000073
:1008000000000240000402400246002012890A4211
:1008100000D001207047808970478181704730B5D2
:10082000028802F441530A884C88CD8822438C8880
:100830002C4322430C8922434C8922438C89224336
:10084000CC8922431A430280828B22F40062828385
:10085000098A018230BD000010B586B00020ADF8D5
:100860001000ADF80C00ADF80A00ADF81400ADF8BA
:100870000800ADF80400ADF812004FF48270ADF836
:1008800006004FF40070ADF80E00054C01A920469B
:10089000FFF7C5FF01212046FFF736FE06B010BD69
:1008A0000030014010B5014602A000F021F90020FF
:1008B00010BD00003C3C2D46414C53482D45525242
:1008C0004F522D3E3E2053504920B5C8B4FDB3AC25
:1008D000CAB1216572726F72436F6465203D202535
:1008E000640A0000704700000CB5002201920092DB
:1008F0002749086840F4803008604FF4A043086836
:1009000000F4003000900198401C0190009810B94C
:1009100001989842F3D10868800302D50120009025
:1009200000E000920098012831D119484030026857
:1009300042F0805202601748026842F4404202606E
:100940001348083002680260026842F40042026004
:10095000026842F4A0520260021F0F4B13600A6843
:1009600042F080720A600A689201FCD50B4A40F29C
:1009700005711160016821F003010160016841F017
:10098000020101600168C1F381010229FAD10CBDA5
:10099000003802400070004019544007003C0240FB
:1009A0007047000010B51248016841F47001016001
:1009B0001048016841F0010101600E4A002108322F
:1009C000116002680C4B1A400260031D0B4A1A604A
:1009D000026822F48022026006480C300160FFF7B2
:1009E00083FF03494FF000608039086010BD0000AC
:1009F00088ED00E000380240FFFFF6FE10300024D2
:100A0000002904D0818941F4005181817047818996
:100A100021F40051818170470246002012880A4269
:100A200000D00120704700007FB504460D46208AA3
:100A300020F44051E88808432082A08941F20C61EB
:100A40008843A9882A8911436A8902431143A181F5
:100A5000A08A20F44071A8890843A0826846FFF765
:100A600001FD1E48844202D01D48844201D10398F2
:100A700000E00298A189090408D500EBC00101EB50
:100A8000001029684900B0FBF1F007E000EBC0015D
:100A900001EB001029688900B0FBF1F06422B0FB83
:100AA000F2F109010B096FF018056B4300EB8300AD
:100AB000A3891D044FF0320307D503EBC000B0FB40
:100AC000F2F000F00700084306E003EB0010B0FB73
:100AD000F2F000F00F00084320817FBD00100140BC
:100AE00000140140C1F3080181807047FEE7000057
:100AF0000FB4054B10B503A9044A029800F018F88A
:100B000010BC5DF814FB0000950F000818000020D1
:100B100002E008C8121F08C1002AFAD170477047C6
:100B2000002001E001C1121F002AFBD17047000024
:100B30002DE9FF4F8DB00F460546002606E025281B
:100B40000BD0DDE90F1290476D1C761C2878002829
:100B5000F5D111B03046BDE8F08F0024A246A14681
:100B60000122EC4900E0044315F8013F203B02FA62
:100B700003F00842F7D128782A2810D06FF02F020E
:100B80002878A0F13001092914D80AEB8A0102EB78
:100B9000410144F0020400EB010A6D1CF0E701CFB3
:100BA0005FEA000A03D544F40054CAF1000A44F095
:100BB00002046D1C28782E2817D115F8010F44F077
:100BC00004042A280ED06FF02F022878A0F13001FB
:100BD00009290AD809EB890102EB410100EB01095F
:100BE0006D1CF2E757F8049B6D1C28786C280FD019
:100BF00006DC4C2817D068280DD06A2814D104E0F0
:100C0000742810D07A280FD10DE044F400140AE0C3
:100C100044F4801401E044F440146978814202D124
:100C200004F580146D1C6D1C2A786E2A1FD00CDC14
:100C3000632A31D004DC002A8BD0582A11D1A3E0DA
:100C4000642A68D0692A0CD165E0732A2ED004DCAE
:100C50006F2A73D0702A04D19BE0752A6FD0782A4E
:100C60006ED01046DDE90F129047761C50E1C4F3B8
:100C70000250022806D0032809D0042801CF09D049
:100C8000066045E101CFF117C0E9006140E101CF05
:100C900006803DE106703BE117F8040B8DF800007B
:100CA00000208DF80100EB46012003E057F804BB5B
:100CB0004FF0FF3061074FF0000102D40DE008F162
:100CC0000101884649450FDA8045F8DB1BF808101A
:100CD0000029F4D108E008F1010188468142FADBDD
:100CE0001BF808100029F6D1DDE90F23AAEB080054
:100CF0008146214600F036F9304400EB080604E056
:100D0000DDE90F121BF8010B9047B8F10108F7D28B
:100D100021464846F7E00A21C4F302534FF0000B86
:100D20000891022B04D001CFC117032B09D00AE090
:100D3000FF1D27F00707F7E8020108E032E01FE097
:100D400020E000B2C117042B01D140B2C117031E2D
:100D500071F1000307DA4FF0000CD0EB0C006CEBE4
:100D600001012D2302E0230504D52B238DF8243027
:100D7000012303E0E30701D02023F7E7984658E07A
:100D80000A2110E010210EE010204FF0000B089017
:100D90000CE010214FF0000B44F004044FF0080960
:100DA000089103E008214FF0000B0891C4F30253AF
:100DB000022B04D001CF0021032B06D006E0FF1D3B
:100DC00027F00707F7E8020103E080B2042B00D107
:100DD000C0B24FF0000823072BD5702A07D0DDF8EA
:100DE00020C08CF0100C5CEA0B0C05D00EE0402308
:100DF0008DF82430012308E050EA010306D03023A7
:100E00008DF824308DF8252002239846DDF820C087
:100E10008CF0080C5CEA0B0C0BD150EA010301D1F9
:100E2000630706D530238DF824304FF00108A9F16F
:100E30000109582A04D038A20B9208AA0A920BE0A2
:100E40003AA2F9E75B46089AFFF7BAF90B9B9B5C5D
:100E50000A9A521E0A92137050EA0102F2D10A98BD
:100E6000ADEB000000F1200B600702D524F48034C4
:100E700001E04FF00109D94502DDA9EB0B0000E0CC
:100E8000002000EB0B0141440890AAEB010AE003AB
:100E900006D4DDE90F232146504600F063F80644EE
:100EA0004FF0000908E009A911F80900DDE90F1267
:100EB000904709F10109761CC145F4DBE0030CD52C
:100EC000DDE90F232146504600F04CF8064404E0CB
:100ED000DDE90F1230209047761C0899481E0890D3
:100EE0000029F5DC08E00A980A990078491C0A9163
:100EF000DDE90F129047761CBBF10001ABF1010B4D
:100F0000F1DC21465046DDE90F2300F019F80644D4
:100F10006D1C1BE609280100303132333435363779
:100F20003839616263646566000000003031323335
:100F300034353637383941424344454600000000D5
:100F40002DE9F041044600251E461746880404D4C6
:100F500005E039462020B0476D1C641EF9D52846AF
:100F6000BDE8F0812DE9F041044600251E4690467B
:100F7000C80301D5302700E02027880404D505E008
:100F800041463846B0476D1C641EF9D52846BDE879
:100F9000F081000070B50446064DE1B22846FFF727
:100FA000A1FD80212846FFF737FD0028F9D0204613
:100FB00070BD000000100140FFF708FA33484021DF
:100FC00001808021018031498015891E0880FFF74A
:100FD0005DF92FA0FFF78CFD36A0FFF789FDFFF725
:100FE000FBFAFFF72DFB01463AA0FFF781FD3FA07A
:100FF000FFF77EFD0020FFF7CBFA4FF4805738460D
:10100000FFF7C6FA3DA0FFF773FD3A463F490020BF
:10101000FFF7EAFA3E4C002626603C4D2068285C2B
:10102000FF2802D03BA0FFF763FD2068401C206032
:10103000B842F3D33DA0FFF75BFD2660414A55213E
:1010400020681154401C2060B842F9D33EA0FFF73D
:101050004FFD3A463B490020FFF738FB3EA0FFF723
:1010600047FD3A4629490020FFF7BEFA40A0FFF7A6
:101070003FFD26602068295C42A0FFF739FD20680B
:10108000401C2060B842F5D3FEE700001A08024079
:101090000D0A20BBB6D3ADCAB9D3C3202053544DDB
:1010A0003332204634303720BFAAB7A2B0E5A1A31F
:1010B0000D0A00000D0A20D5E2CAC7D2BBB8F64619
:1010C0004C415348B6C1D0B4B2E2CAD4C0FDB3CC8F
:1010D000200D0A000D0A20666C6173685F69642048
:1010E0003D2030782578200D0A0000000D0A20BF31
:1010F000AACABCB2C1B3FD200D0A00000D0A20CD62
:10110000EAB3C9B2C1B3FD200D0A00001C000020E3
:10111000100000200D0ABCECB2E2B5BDA3BAB2C10A
:10112000B3FDCAA7B0DC0D0A000000000D0A20BC08
:10113000ECB2E2B5BDA3BAB2C1B3FDCDEAB3C920EA
:101140000D0A00001C1000200D0A20BFAACABCD046
:10115000B4C8EB200D0A00000D0A20BCECB2E2B5C9
:10116000BDA3BAD0B4C8EBCDEAB3C9200D0A0000C4
:101170000D0A20B6C1C8A1B5BDB5C4CAFDBEDD3AD1
:10118000200D0A003078253032782000AC1100089C
:10119000000000201C000000100B0008C81100080F
:1011A0001C00002004240000200B000800000000A8
:1011B00001020304010203040607080900000000FD
:0811C00000A000000000000087
:040000050800018965
:00000001FF
