:020000040800F2
:10000000E82600209D010008AF0300085103000806
:10001000AD03000811020008750A00080000000086
:100020000000000000000000000000006D08000853
:100030001302000800000000B103000829090008AD
:10004000B7010008B7010008B7010008B7010008B0
:10005000B7010008B7010008B7010008B7010008A0
:10006000B7010008B7010008B7010008B701000890
:10007000B7010008B7010008B7010008B701000880
:10008000B7010008B7010008B7010008B701000870
:10009000B7010008B7010008B7010008B701000860
:1000A000B7010008B7010008B7010008B701000850
:1000B000B7010008B7010008B7010008B701000840
:1000C000B7010008B7010008B7010008B701000830
:1000D000B7010008B7010008B7010008B701000820
:1000E000B7010008B7010008B7010008B701000810
:1000F000B7010008B7010008B7010008B701000800
:10010000B7010008B7010008B7010008B7010008EF
:10011000B7010008B7010008B7010008B7010008DF
:10012000B7010008B7010008B7010008B7010008CF
:10013000B7010008B7010008B7010008B7010008BF
:10014000B7010008B7010008B7010008B7010008AF
:10015000B7010008B7010008B7010008B70100089F
:10016000B7010008B7010008B7010008B70100088F
:10017000B7010008B7010008B7010008B70100087F
:10018000B7010008B7010008DFF80CD000F02EF826
:100190000048004799260008E826002006488047C6
:1001A00006480047FEE7FEE7FEE7FEE7FEE7FEE75C
:1001B000FEE7FEE7FEE7FEE72D09000889010008DB
:1001C00030B50B46014600202022012409E021FA27
:1001D00002F59D4205D303FA02F5491B04FA02F524
:1001E0002844151EA2F10102F1DC30BD064C074D7A
:1001F00006E0E06840F0010394E8070098471034F7
:10020000AC42F6D3FFF7C4FF0436000824360008DA
:10021000FEE7704770B586B00121084600F0CAF8C5
:100220000121102000F0D4F81E4E07220A2130468A
:1002300000F07AF807220921304600F075F8002412
:100240008DF8164001208DF8170002258DF8145006
:10025000410204918DF8155004A9304600F026F8AB
:100260008DF814506802049004A9304600F01EF87E
:100270004FF4E1300090ADF80440ADF80640ADF821
:100280000840ADF80C400C20ADF80A00064C694659
:10029000204600F08DFB0121204600F075FB06B0E2
:1002A00070BD000000000240001001402DE9F04147
:1002B000002201274FF0030C07FA02F50B682B40D0
:1002C000AB422CD1066853000CFA03F4A643066037
:1002D0000E79D0F800809E4046EA080606600E7946
:1002E000012E01D0022E12D18668A64386604E7977
:1002F000D0F808809E4046EA080686604668AE430D
:10030000466045688E799640B6B235434560C5680B
:10031000A543C560CC799C40C3681C43C460521C93
:10032000102AC9D3BDE8F08110B54B07DB0E9A4007
:10033000C90800EB8100016A0F249C40A1430162BF
:10034000016A1143016210BD418370470183704708
:10035000FEE700002DE9FC410121042000F02AF80D
:100360004024009401208DF8040000218DF806102F
:100370008DF807008DF805100B4F69463846FFF7DA
:1003800095FF8026009669463846FFF78FFFA50047
:10039000009569463846FFF789FF03481A30048004
:1003A00006800580BDE8FC8100080240FEE770473A
:1003B00070470000054A002903D01168014311600D
:1003C0007047116881431160704700003038024067
:1003D000054A002903D01168014311607047116874
:1003E00081431160704700004438024070B5244BCF
:1003F000196801F00C01234C00291ED0224E04295B
:100400001DD008291DD00460196801F0F001090908
:100410001E4A545C0168E14041601C6804F4E054E9
:10042000A40A145D21FA04F484601B6803F4604399
:100430005B0BD25CD140C16070BD0460E4E7066034
:10044000E2E70F4A121F1168C1F38055116801F0ED
:100450003F0135B1B6FBF1F11468C4F38814614370
:1004600005E0B4FBF1F11468C4F388146143126829
:10047000C2F30142521C5200B1FBF2F10160C3E72A
:10048000083802400024F40040787D01000000207C
:10049000002904D0018841F04001018070470188A3
:1004A00021F040010180704770B5044600F012F958
:1004B0000E4E4FF4804529463046FFF745FF202079
:1004C00000F06AF8C4F3074000F066F8C4F30720B0
:1004D00000F062F8E0B200F05FF829463046FFF71E
:1004E00035FFBDE8704000F08FB800000004024006
:1004F00010B500F003F9BDE8104000F071B900003C
:100500002DE9F041044688461546124F4FF48046C7
:1005100031463846FFF718FF032000F03DF8C8F3D6
:10052000074000F039F8C8F3072000F035F808F06C
:10053000FF0000F031F804E0FF2000F02DF804F88F
:10054000010B6D1E681CF7D131463846BDE8F041FD
:10055000FFF7FCBE0004024070B50E4D4FF480441E
:1005600021462846FFF7F0FEAB2000F015F8FF20EB
:1005700000F012F8FF2000F00FF8FF2000F00CF858
:10058000FF2000F009F8064621462846FFF7DEFE68
:10059000304670BD000402402DE9F0410746184C7A
:1005A0004FF480552560174E09E02068421E2260F6
:1005B00005D2012000F03AF9C0B2BDE8F081022175
:1005C000304600F0E5F80028EFD03946304600F01C
:1005D000E8F8256008E021684A1E226004D2012064
:1005E00000F024F9C0B2E8E70121304600F0D0F86D
:1005F0000028F0D0304600F0D2F8C0B2DDE70000AD
:100600001C0000200030014070B5104E4FF48045B2
:1006100029463046FFF798FE0520FFF7BDFF0C4C3A
:100620004FF420402060FF20FFF7B6FFC00706D040
:100630002068421E2260F6D2032000F0F7F8294617
:100640003046BDE87040FFF781BE00000004024064
:100650001C0000202DE9F04706460C4617460025F1
:100660004FF48048DFF8689026E06D1C012D04D01F
:10067000E8B2012801D0200519D141464846FFF7CC
:1006800065FEFFF7C1FF00F025F841464846FFF739
:100690005BFE0220FFF780FFC4F30740FFF77CFFFB
:1006A000C4F30720FFF778FFE0B2FFF775FF30785B
:1006B000FFF772FF761C641C7F1E781CD5D1414663
:1006C0004846FFF743FEBDE8F047FFF79DBF000037
:1006D0000004024070B5084D4FF48044214628467E
:1006E000FFF732FE0620FFF757FF21462846BDE8F8
:1006F0007040FFF72BBE0000000402407CB50121D2
:100700000803FFF765FE01210320FFF753FE1E4E8D
:10071000052211463046FFF707FE05220621304626
:10072000FFF702FE052207213046FFF7FDFD2020DE
:10073000009002258DF804508DF8055000248DF8A6
:1007400006408DF8074069463046FFF7AFFD40216F
:10075000009169463046FFF7A9FD80200090694668
:100760003046FFF7A3FD6803009001208DF80400D8
:100770008DF805508DF806408DF80740694603480E
:10078000FFF794FD7CBD0000000002400004024021
:100790000246002012890A4200D001207047808959
:1007A00070478181704730B5028802F441530A884E
:1007B0004C88CD8822438C882C4322430C892243C9
:1007C0004C8922438C892243CC8922431A430280DC
:1007D000828B22F400628283098A018230BD00008C
:1007E00010B586B00020ADF81000ADF80C00ADF8E3
:1007F0000A00ADF81400ADF80800ADF80400ADF83B
:1008000012004FF48270ADF806004FF40070ADF89E
:100810000E00054C01A92046FFF7C5FF0121204627
:10082000FFF736FE06B010BD0030014010B501469E
:1008300002A000F021F9002010BD00003C3C2D4634
:10084000414C53482D4552524F522D3E3E2053505D
:100850004920B5C8B4FDB3ACCAB1216572726F72DC
:10086000436F6465203D2025640A00007047000046
:100870000CB50022019200922749086840F48030AC
:1008800008604FF4A043086800F40030009001981D
:10089000401C0190009810B901989842F3D1086863
:1008A000800302D50120009000E00092009801280A
:1008B00031D119484030026842F080520260174836
:1008C000026842F440420260134808300268026045
:1008D000026842F400420260026842F4A0520260E0
:1008E000021F0F4B13600A6842F080720A600A68A8
:1008F0009201FCD50B4A40F205711160016821F0AC
:1009000003010160016841F0020101600168C1F367
:1009100081010229FAD10CBD00380240007000406C
:1009200019544007003C02407047000010B51248BF
:10093000016841F4700101601048016841F0010153
:1009400001600E4A00210832116002680C4B1A4007
:100950000260031D0B4A1A60026822F480220260C2
:1009600006480C300160FFF783FF03494FF0006039
:100970008039086010BD000088ED00E000380240BA
:10098000FFFFF6FE10300024002904D0818941F4D5
:10099000005181817047818921F400518181704724
:1009A0000246002012880A4200D001207047000051
:1009B0007FB504460D46208A20F44051E88808435C
:1009C0002082A08941F20C618843A9882A891143B9
:1009D0006A8902431143A181A08A20F44071A88949
:1009E0000843A0826846FFF701FD1E48844202D0FA
:1009F0001D48844201D1039800E00298A1890904AE
:100A000008D500EBC00101EB001029684900B0FBDC
:100A1000F1F007E000EBC00101EB0010296889004C
:100A2000B0FBF1F06422B0FBF2F109010B096FF0A9
:100A300018056B4300EB8300A3891D044FF03203BC
:100A400007D503EBC000B0FBF2F000F0070008434D
:100A500006E003EB0010B0FBF2F000F00F000843DB
:100A600020817FBD0010014000140140C1F3080146
:100A700081807047FEE700000FB4054B10B503A955
:100A8000044A029800F018F810BC5DF814FB00004E
:100A9000892400082C00002002E008C8121F08C1A9
:100AA000002AFAD170477047002001E001C1121FEF
:100AB000002AFBD1704700002DE9FF4F8BB09A460A
:100AC0000F460546002606E025280BD052460D9914
:100AD00090476D1C761C28780028F5D10FB0304661
:100AE000BDE8F08F0024A0460122604900E00443E5
:100AF00015F8013F203B02FA03F00842F7D12878AD
:100B00002E2817D115F8010F44F004042A280ED01E
:100B10006FF02F022878A0F1300109290AD808EBDC
:100B2000880102EB410100EB01086D1CF2E757F868
:100B3000048B6D1C287869283ED006DC0028CDD0B7
:100B400063280BD0642804D136E0732810D07528B0
:100B50004BD052460D999047761C85E017F8040B50
:100B60008DF8000000208DF80100E946012003E027
:100B700057F8049B4FF0FF3061074FF0000401D499
:100B80000AE0641C44450DDA8442FADB19F80410CB
:100B90000029F6D106E0641C8442FCDB19F804103D
:100BA0000029F8D1264404E019F8010B52460D99AA
:100BB0009047641EF8D257E001CF4FF00A0B00288F
:100BC00002DA40422D2102E0210504D52B218DF8C7
:100BD0002410012103E0E10705D02021F7E70DF102
:100BE000200908910CE00021F9E701CF4FF00A0B32
:100BF000F9E75946FFF7E4FA01F1300209F8012D4F
:100C00000028F6D1ADEB090000F1200B600701D4FC
:100C10004FF00108D84502DDA8EB0B0000E00020F2
:100C20008046002406E009A85246005D0D999047D1
:100C3000641C761C08988442F5DB04E030205246A0
:100C40000D999047761CB8F10001A8F10108F5DC78
:100C500005E019F8010B52460D999047761CBBF13F
:100C60000001ABF1010BF4DC6D1C34E70928010035
:100C700010B5044600202071401EE062204601F0BD
:100C800077FE08B1032010BD94F82E0294F82F12BD
:100C900040EA0120A0F52A41553901D0022010BDBB
:100CA00014F8660FE178627840EA0161A078663C4A
:100CB000000440EA022001430B48B0EB012F01D1B0
:100CC000002010BD14F8821FE278637841EA0261C7
:100CD000A278120442EA03221143B0EB012F01D1A2
:100CE000002010BD012010BD0046415400E0401C12
:100CF00002780AB18A42FAD100787047891E4269A7
:100D0000921E8A4201D800207047826A807801FBD7
:100D1000002070472DE9F05F81460E46B07EF17EDF
:100D200050EA012002D00020BDE8F09F307800F0AA
:100D30003F00401E00EB800101EBC00401200025B4
:100D4000DFF860A006F101081AF80510725C11F8CE
:100D5000081042EA012788B1FF2C0BD2384601F077
:100D60005DF983462046641C39F8100001F056F9FD
:100D7000834501D00020D7E7384605E0A7F57F413D
:100D8000FF3901D00020CFE76D1C0D2DDCD3317869
:100D9000490605D520B139F8140008B10020C3E791
:100DA0000120C1E7102D00082DE9F04106460F464D
:100DB000002F08D03946304601F0BCFB022809D28A
:100DC0000120BDE8F081F56815B17069A84207D827
:100DD000012505E0411CF4D071698142F1D83D46FE
:100DE0002C46641C7069A04204D80224022D01D252
:100DF0000020E6E72146304601F09CFB38B1411C5B
:100E0000DFD00128DDD0AC42EBD10020D9E76FF074
:100E100070422146304601F0C5FD28B927B122466F
:100E20003946304601F0BEFD20B101280DD0012425
:100E30002046C6E7F4603069411CF9D0401E30619D
:100E4000707940F001007071F2E74FF0FF34EFE786
:100E50002DE9F35F8846D8F8005000E06D1C287833
:100E60002F28FBD05C28F9D00098D0F81C900024E3
:100E700026463046761C285C202808D32F2806D02A
:100E80005C2804D0FF2C09D30620BDE8FC9FA919DB
:100E9000C8F80010202817D204261FE0C0B2012194
:100EA00001F0A2F8074647B1802F08D239465EA06C
:100EB000FFF71CFF18B10620E7E70620E5E720460C
:100EC000641C29F81070D4E7002607E0601E39F88A
:100ED0001000202801D02E2802D1641E002CF5D14C
:100EE00054B1002029F8140000980B2220218069B9
:100EF00001F036FD002702E00620C6E77F1C39F826
:100F000017002028FAD02E28F8D01FB146F003068B
:100F100000E0641E24B1601E39F810002E28F8D1BC
:100F20004FF00008C2464FF0080B38467F1C39F8D6
:100F3000105005B3202D03D02E2D04D1A74202D08E
:100F400046F00306F1E7DA4501D2A74219D1BBF119
:100F50000B0F0ED0A74201D046F003060BD8274650
:100F60004FF0080A4FF00B0B4FEA88604FEA106809
:100F7000DBE746F00306009880690178E5292ED06A
:100F80002FE0802D0BD30021284601F02DF80546D7
:100F90001DB12848284410F8805C46F0020625B1AF
:100FA000294625A0FFF7A2FE18B15F2546F00306EB
:100FB0000EE0A5F14100192802D848F0020807E028
:100FC000A5F16100192803D848F00108203DADB211
:100FD0000098816950460AF1010A0D54A5E70521E0
:100FE0000170BBF1080F03D14FEA88604FEA106827
:100FF000C8F38100032803D06FEA0801890701D1F3
:1010000046F00206B10709D408F00301012901D115
:1010100046F01006012801D146F0080600988069C4
:10102000C672002031E70000222A3A3C3E3F7C7F16
:1010300000000000902C00082B2C3B3D5B5D000065
:1010400070B505460E460021284600F08AF988B999
:1010500000242969286801F08BFC58B9696909786E
:10106000E5290BD051B100240121284600F06DF88C
:101070000028EED0042800D1072070BD641CB442C3
:10108000F8D0F1E72DE9F04704460021204600F0B2
:1010900068F9002857D1FF26B1464FF6FF7AA4F829
:1010A00020A02169206801F063FC80465FEA080007
:1010B00048D167693D7865B1F87A00F03F00E52DC9
:1010C00003D0010708D50F2806D0FF26A4F820A0DA
:1010D00030E04FF0040835E00F2801D0CEB11DE01C
:1010E000E06938B3690606D597F80D9025F04005FC
:1010F0002E46E1882184B54208D1797B494505D146
:101100003946FFF707FE08B1761E00E0FF26F6B26B
:1011100010E0384601F017FD484513D0A169C87AA0
:10112000C00704D10B22384601F004FC50B1FF2661
:10113000A4F820A00021204600F007F880465FEACE
:101140000800AED04046BDE8F0872DE9F0410446E6
:101150000E46E7887F1C3804000C0AD0216941B193
:10116000206842895209B7FBF2F302FB13721AB1ED
:1011700066E00420BDE8F081491C2161E16871B19D
:10118000428983785209B7FBF2F25B1E1A4257D1AB
:1011900001F0D0F90546012D06D80220EAE70089C2
:1011A000B8424DD80420E5E7681C14D02068416996
:1011B000A9423FD88EB1E168FFF7F6FD0546280049
:1011C0000DD0012D0DD0681C0DD0206801F022FD3E
:1011D00058B10120CEE70120CCE70420CAE7072060
:1011E000C8E70220C6E70120C4E720680021428941
:1011F000303001F0B5FB29462068FFF77FFD2168FC
:10120000C86200264FF001080CE080F804802068D6
:1012100001F000FD08B10120ACE72068C16A491C5B
:10122000C162761C20688178B142EED82168C96A13
:10123000891BC162E56029462068FFF75FFD2061D8
:10124000E780206841894909B7FBF1F201FB12717F
:10125000302202EB41110844606100208AE72DE949
:10126000FE430446A769E6690C223946684601F048
:101270006EFB9DF80B00C00718D00020F872E061EB
:1012800001252B4632466946384601F00FF92046C3
:10129000FFF7F8FE10B96D1C642DF2D3642D0BD04E
:1012A00004280AD19DF80B00F872E6619DF80B0046
:1012B00080070ED5002003E00720BDE8FE83401C18
:1012C00036F810100029FAD119300D21B0FBF1F6D3
:1012D00000E0012631462046FFF7B2FE0546012711
:1012E0001DBB761E21D0E088811B204600F039F816
:1012F0000546280019D1A06901F025FC8046216926
:10130000206801F035FB05467DB9F2B243466169BC
:10131000E06901F04DF82068077100212046FFF7D1
:1013200014FF05460DB9761EE9D1C5B921692068BB
:1013300001F01EFB0546280011D120220021606922
:1013400001F00EFBD4E905010B2201F000FBA069BE
:101350006169C07A00F01800087320680771284698
:10136000ABE770B504460D46E580A368012B03D0BA
:1013700020684169994201D8022070BD1BB90178EB
:10138000032900D1436A2BB141898078490911FBB7
:1013900000F618E00189A94201D8022070BD406A18
:1013A00017E01946206801F0C5F80346581C07D01D
:1013B000022B03D320684069984203D8022070BDF5
:1013C000012070BDAD1BB542EBD219462068FFF776
:1013D00095FCE36098B121684A895209B5FBF2F2A5
:1013E0001044206148894009B5FBF0F200FB12501F
:1013F000302202EB401008446061002070BD0220E2
:1014000070BD10B5002803D0012803D0012010BD05
:10141000084610BDFFF76CF8BDE81040012000F051
:1014200030B8002803D0012803D0042070470846B4
:10143000704799B14FF48050012905D0022906D098
:10144000032907D0042070471060002070471080E7
:101450000020704701201060002070470020704776
:1014600070B504460D461046002C02D0012C01D068
:10147000042070BD01031A032846FFF741F800203D
:1014800070BD10B50024002803D0012803D001202E
:1014900010BD204610BDFFF75FF8162800D00124CC
:1014A000204610BD2DE9F0410F4614461D460600AA
:1014B00002D0012E02D00420BDE8F0814FF4805804
:1014C0000BE020030646FEF7EFFF31464246384662
:1014D000FFF7C0F8641C07F580576D1E681CF0D13B
:1014E000EAE710B50446204600F054FC002806D177
:1014F000204601F0B9FB002801D10021216010BD78
:101500002DE9F74F88B090460998012803D9132098
:101510000BB0BDE8F08F08A801F08EF8002801DAC2
:101520000B20F5E7FE4951F8206056B100213170DB
:10153000C0B205900598FFF764FFC10703D00320F0
:10154000E6E70C20E4E7400701D50A20E0E706F1D2
:101550000A0202210598FFF764FF30B97089B0F5DF
:10156000805F02D8B0F5007F01D20120D0E702AA47
:1015700001210598FFF755FF10B90298802801D284
:101580000120C5E7099911B14FF0000A01E04FF0C1
:101590003F0AA0EB0A010291A8F1010018EA000F2E
:1015A00001D04FF00008B8F1000F13D170894FF44B
:1015B000FA62400AB2FBF0F0B1FBF0F20020D94B26
:1015C00000E0401C33F810509542FAD8D54A163244
:1015D00032F81080B8F5007F02D37089B8FBF0F8BC
:1015E000B8F1000F01D14FF00108B8F1800F01D917
:1015F0004FF08008B1FBF8F0012740F6F6729042F8
:1016000000D302274FF6F672904200D30327032F30
:101610001BD0012F24D04200121D7089521E02449B
:10162000B2FBF0F90125AA03B2FBF0F001900AEB3E
:10163000050B0BEB0900019A841804EB0800A0EBE2
:101640000A00884212D90E2062E77289072303EB51
:1016500080001044B0FBF2F9202500200190E6E75D
:1016600000EB4000401C4208D21CD6E703AA03212D
:101670000598FFF7D6FE20B9039810B1B0F5004FDA
:1016800001D90120039003982118491E401E81436F
:10169000081B0390032F0CD081440298411BA1EB3F
:1016A00009020199511AB1FBF8F10491022F03D0FC
:1016B00007E005448344F0E7049940F6F67291424E
:1016C00006D3032F06D104994FF6F672914201D248
:1016D0000E201DE7032F02D0012F02D006E00C24BC
:1016E0000AE0B0F5803F01D2012405E0B0F5803F6B
:1016F00001D2042400E00624099810B1F0200690DD
:1017000039E0728906F130000021079001F028F9D4
:1017100006F5F7700121417081700022C2700471DA
:10172000FE214171029943F6C1635144B1FBF3F1CB
:1017300003913F2343EA91048471C17103724272A1
:101740008272C272029901730A0A42730A0C82738E
:10175000090EC173552086F82E02AA2086F82F02A2
:101760000123002207990598FFF79CFE08B101208C
:10177000CEE6F820069006F130047289002120465A
:1017800001F0EEF80B2268A1204601F0E0F8708924
:10179000E072000A207384F80D80A573280AE073B4
:1017A00001202074032F0BD040026074000AA07443
:1017B0000298B0F5803F05D2E074000A20750AE077
:1017C0000020F2E704F8200F010A6170010CA170FB
:1017D000000EE070203C069860753F2020760020C7
:1017E0006076FF21A176E07684F81CA04FEA1A20EB
:1017F00060774FEA1A40A0774FEA1A60E07700F06E
:1018000019FF039080222921032F24D016346074FD
:10181000030AA374030CE374000E207584F800908F
:101820004FEA19206070A2732174163C132241A163
:1018300004F12B0001F08BF8552084F8FE01AA205A
:1018400084F8FF010123524621460598FFF72AFE3E
:1018500060B301205CE62534A077030AE377030C2C
:1018600084F82030000E84F8210004F8019C4FEA2F
:10187000192020704FEA194060704FEA1960A0707B
:101880000220E071002020726072A0720123E372D6
:10189000207306236373A073E2766177253C1322DD
:1018A00029A104F1470001F052F8C5E7032F06D142
:1018B00001230AF1060221460598FFF7F3FD5D4674
:1018C0004FF0000B72890021204601F049F806987C
:1018D0000390032F12D0012F0ED06FF0FF010143B0
:1018E000039121700398000A60700398000CA070A7
:1018F0000398000EE07039E01849F0E760F0FF004F
:10190000039020700398000A60700398000CA07088
:101910000398000EE070FF2020716071A0711FE03D
:10192000240000201E2D0008EBFE904D53444F5321
:10193000352E30004E4F204E414D45202020204670
:1019400041542020202020004E4F204E414D452064
:1019500020202046415433322020200000FFFF0089
:10196000E07120726072A0720F20E0722A466D1C36
:10197000012321460598FFF795FD08B10120C7E531
:1019800072890021204600F0EBFF012003900CE05B
:101990002A466D1C012321460598FFF783FD08B1F7
:1019A0000120B5E50398401C039003984845EFD308
:1019B0000BF1010BBBF1000F84D0032F01D0DDF838
:1019C00004802A466D1C012321460598FFF76AFD15
:1019D00008B101209CE5B8F10108F2D1032F3AD1FA
:1019E0005220207060706120A0704121E17072224D
:1019F00084F8E42184F8E52184F8E61184F8E7010D
:101A00000498401E84F8E801010A84F8E911010CE9
:101A100084F8EA11000E84F8EB01022084F8EC014E
:101A2000002084F8ED0184F8EE0184F8EF015520E0
:101A300084F8FE01AA2084F8FF0101230AF10102C3
:101A400021460598FFF72EFD01230AF107022146E2
:101A50000598FFF727FD002211460598FFF7E1FCE6
:101A600008B1012054E5002052E5000017B581B00F
:101A7000144602980090684600F0DEFD002802DA65
:101A80000B2004B010BD0B4B53F82010002201B105
:101A90000A700199002900D00A7043F8201001D083
:101AA000012C01D00020ECE7002202A901A800F0DF
:101AB000DBFAE6E7240000202DE9F7478DB0064663
:101AC000002E0FD04FF00008C6F8008002F01F076C
:101AD00027F001020EA904A800F0C6FA0546280066
:101AE00004D095E0092010B0BDE8F08701A80A9065
:101AF00048480B9004A80E9900F090FC0546099CFC
:101B00000DB904B9062517F01C0F51D04DB1042DA5
:101B100003D104A8FFF7A3FB054647F00807099C7B
:101B200008E0E07A10F0110F01D0072502E07807F5
:101B300000D50825DDBB380745D500F07BFDA07337
:101B4000010AE173020C2274030E6374A075E1753F
:101B50002276637684F80B8084F81C8084F81D80DC
:101B600084F81E8084F81F802146049800F085FDCB
:101B700081460021204600F0DEFF04990120087113
:101B8000B9F1000F1FD00498D0F82CA04946049852
:101B900000F09EFF0546280015D10498A9F101091F
:101BA000C0F80C905146049800F0E2FE05460AE0A9
:101BB0004DB9E07AC10601D5042504E0B90702D584
:101BC000C00700D007253DB9380701D547F02007E9
:101BD0000498C06AF0613462D5B9B77186F807809D
:101BE0002146049800F049FD3061207FE17F627F4B
:101BF00040EA0160A17F090441EA02210843F06044
:101C0000C6F80880C6F8188004983060C088B08094
:101C1000284668E7E82000202DE9F84F044688466A
:101C2000164699460020C9F80000204601F01CF82D
:101C3000002812D1E07900280FD1A079C0070BD07D
:101C4000D4E90210401A864200D9064604F1240065
:101C50004FF0010A009098E00720BDE8F88F226855
:101C6000A0685189B0FBF1F301FB1303002B6DD188
:101C7000B0FBF1F193785B1E1940CDB275B940B15C
:101C80001046616900F056FC022804D20220E0717F
:101C9000E3E72069F8E7411C1CD0606161692068B6
:101CA000FFF72CF8D0B100EB050B20684189B6FB9B
:101CB000F1F74FB38178EA198A4200D94F1B407877
:101CC0003B465A464146FFF7CBFB50B184F807A08C
:101CD0000120C2E784F807A00120BEE70220E071DE
:101CE000BBE7A07940060BD5A069A0EB0B00B8427A
:101CF00006D221684A89009900FB028000F027FE85
:101D0000206845897D4336E0A2695A451CD0A179F7
:101D100049060DD5407801230099FFF7C3FB18B1A0
:101D200084F807A0012098E7A07920F04000A07176
:101D3000206801235A4640780099FFF791FB18B1BB
:101D400084F807A0012088E7C4F818B02068A168CB
:101D50004089B1FBF0F200FB1212851AB54200D99E
:101D60003546B1FBF0F200FB1210011924312A466E
:101D7000404600F0ECFDA844A0682844A060D9F8D3
:101D800000002844C9F80000761B002E7FF467AFDE
:101D9000002062E770B50446204600F065FF002889
:101DA0000ED1A1798A060BD548060ED520680123ED
:101DB00004F124014078A269FFF774FB08B1012007
:101DC00070BDA07920F04000A071E169206800F0AA
:101DD000CFFD0028F4D1256AE87A40F02000E872AF
:101DE000207B2877A089000A6877E068000CA87734
:101DF000E068000EE8772846216900F09CFE00F0BC
:101E000019FCA875010AE975010C2976000E68769F
:101E10000020A874E874A07920F02000A071216847
:101E2000012008712068BDE8704000F099BE2DE9DE
:101E3000F84F04468846164699460020C9F8000027
:101E4000204600F011FF002806D1E079002803D1D8
:101E5000A079800702D40720BDE8F88FA068811917
:101E600000D3002604F124004FF0010A0090ADE0F9
:101E70002268A0685189B0FBF1F301FB1303002B2A
:101E80007DD1B0FBF1F193785B1E1940CDB2F5B96D
:101E900068B110466169FEF787FF002870D00128FD
:101EA0000DD0411C0ED06061216979B10FE020692D
:101EB0000028F2D100211046FEF776FFEDE7022060
:101EC000E071C9E784F807A00120C5E72061A07987
:101ED00040060FD520680123A26940780099FFF7DA
:101EE000E1FA18B184F807A00120B5E7A07920F045
:101EF0004000A07161692068FEF700FFB0B100EBFF
:101F0000050B20684189B6FBF1F737B38178EA19F0
:101F10008A4200D94F1B40783B465A464146FFF75C
:101F2000C1FA30B184F807A0012095E70220E071E2
:101F300092E7A069A0EB0B00B8420AD221684A8957
:101F400000FB0281009800F002FDA07920F0400023
:101F5000A071206845897D432EE0A169594510D0C4
:101F6000D4E9021291420CD2407801235A460099DA
:101F7000FFF776FA28B184F807A001206CE702E0A9
:101F800027E0C4F818B02068A1684089B1FBF0F2DE
:101F900000FB1212851AB54200D93546B1FBF0F2AA
:101FA00000FB1210204424302A46414600F0CFFCAA
:101FB000A07940F04000A071A844A0682844A06027
:101FC000D9F800002844C9F80000761B002E7FF4E1
:101FD0004FAFD4E90201884200D9E060A07940F017
:101FE0002000A071002037E7802804D30A4A39B1C5
:101FF000FF2801D900207047803832F81000704760
:10200000002132F81130834203D0491C89B2802963
:10201000F7D38031C8B270474A2D000870B58028C8
:1020200006D2A0F16101192901D8203880B270BD13
:102030000C2300224FF4F774094DA11A02EB510151
:1020400035F81160864205D001D20A4600E00C4600
:102050005B1EF2D1002BEAD0024830F8110070BDAF
:102060004A2E0008263200082DE9FF478046084620
:1020700016460027C8F8007000F0DEFA0546002D6D
:1020800003DA0B2004B0BDE8F087C64850F82540BD
:102090008CB1C8F80040207820B16078FFF7F1F9E2
:1020A000C1070AD02770E8B26070FFF7AAF9C1072C
:1020B0000AD00320E6E70C20E4E71EB1400701D573
:1020C0000A20DFE70020DDE71EB1400701D50A2026
:1020D000D8E7607804F10A020221FFF7A2F930B9CB
:1020E0006089B0F5007F02D3B0F5805F01D901208F
:1020F000C8E7002529462046FEF7BAFD012826D16B
:102100000021E84604EB011000F5F770027952B1A6
:10211000027AC37A42EA0362837A407A1B0443EA72
:102120000020024300E0002248F82120491C042935
:10213000E8D3002658F8265025B129462046FEF758
:1021400097FD00E0022010B1761C042EF2D3032884
:1021500002D018B10D2095E7012093E794F83B00D9
:1021600094F83C10B4F80AC040EA0120604501D060
:102170000D2087E794F8460094F8471040EA0120C4
:1021800058B914F8540FE178627840EA0160A178F8
:102190000904543C41EA02210843A06194F840A09C
:1021A00084F803A0BAF1010F04D0BAF1020F01D0F4
:1021B0000D2067E70AFB00FA94F83D20A27012B1E7
:1021C000511E0A4201D00D205CE794F8411094F8AA
:1021D000423041EA032323814FEA5C16B3FBF6F158
:1021E00006FB113109B10D204CE794F8431094F827
:1021F000448041EA082179B994F8501094F853804A
:1022000094F8519041EA086194F852804FEA0848E6
:1022100048EA092841EA080194F83E8094F83F9082
:1022200048EA0929B9F1000F08D0B3FBF6F609EB2B
:102230000A08B044414503D20D2023E70D2021E7D1
:10224000A1EB0801B1FBF2F141B3012640F6F672B1
:10225000914200D302264FF6F672914200D3032634
:10226000891C6161E56105EB09022262A844C4F89A
:102270002880032E14D03BB352446262022E25D034
:1022800001F0010201EB410102EB5101491E6144E1
:10229000B1FBFCF181421BD90D20F3E60D20F1E6E4
:1022A0000BB10D20EEE694F85C2094F85F3094F8C2
:1022B0005D8042EA036294F85E301B0443EA08231F
:1022C0001A4362628900E1E70D20DBE64900DDE7A1
:1022D0004FF0FF302061E06080206071032E57D105
:1022E00094F8600094F8611040EA012001284FD171
:1022F000691C204600F03CFBF0BB677194F82E028D
:1023000094F82F1240EA0120A0F52A4155393FD117
:1023100014F8300FE178627840EA0160A178303C2F
:10232000090441EA022108431F49884230D194F848
:10233000140294F8171294F8152240EA016094F8F8
:102340001612090441EA02210843184988421FD1A4
:1023500094F8180294F81B1294F8192240EA0160CC
:1023600094F81A12090441EA02210843206194F802
:102370001C0294F81F1200E00AE040EA016094F8A1
:102380001E1294F81D22090441EA02210843E0606C
:1023900026700449091F0888401C0880E08000203E
:1023A00070E60000240000205252614172724161C7
:1023B0002DE9F0434B730F23CB7200230B738B7605
:1023C000CB76531E03EB830404EBC30500231C46AA
:1023D000114E01F1010C4FF6FF77BB4203D02B46A3
:1023E0006D1C30F8133016F8048001F8083016F828
:1023F00004904FEA132809F80C8003B93B46641C8B
:102400000D2CEAD3BB4202D030F8150008B942F0D7
:1024100040020A70BDE8F083102D000873B5044631
:10242000019908782F2801D05C2801D1491C01911D
:102430000025A56001980078202805D200212046BB
:10244000FEF78FFF65617CBD01A92046FEF700FD08
:102450000028F8D12046FEF715FEA169C97A28B1F7
:102460000428F0D14907EED405207CBD4907FCD4EF
:102470006169C87AC00601D405207CBD206800F0DF
:10248000FCF8A060E0E7000070B50446064DE1B23C
:102490002846FEF7EBFA80212846FEF781FA00284D
:1024A000F9D0204670BD0000001001407CB5054603
:1024B00016461C460B22284600F049FA052C11D975
:1024C0001B480CE0B61C002322460C4662F35F0456
:1024D0004908E20300D544405B1C102BF4D331883B
:1024E0000029EFD107216B4604F00F023032392A60
:1024F00001D9D21DD2B20846491E1A542409002C13
:10250000F2D17E205854002200E0521C8A4202D2AE
:10251000A85C2028F9D1082903D20846491C185C78
:1025200000E020201446521C2855082AF3D37CBD15
:10253000211001002DE9F04104460D46022D02D381
:102540006069A84201D8012609E04FF0FF362078E3
:10255000012807D0022835D003284BD00126304669
:10256000BDE8F08105EB55076089216AB7FBF0F003
:102570000144204600F0FCF90028F0D1608939467A
:10258000B1FBF0F200FB121121447F1C91F8308066
:10259000B7FBF0F0216A0144204600F0E9F9002879
:1025A000DDD16089B7FBF0F100FB1170204490F899
:1025B000300048EA0020E90701D00609CFE7C0F360
:1025C0000B06CCE76089216A4008B5FBF0F00144B6
:1025D000204600F0CDF90028C1D161896800B0FB28
:1025E000F1F201FB1200204430300178407841EADA
:1025F0000026B4E76089216A8008B5FBF0F0014449
:10260000204600F0B5F90028A9D16189A800B0FBE7
:10261000F1F201FB1200204430300178C27841EA27
:10262000026182784078120442EA0020014321F0DE
:10263000704694E70020704710B504464FF0FF3015
:102640002368002B0BD0194600E0491C0A78202A89
:1026500001D33A2AF9D10A783A2A01D0002010BDD4
:1026600013F8012B303A0A2AF9D28B42F7D1022A09
:10267000F5D21046491C216010BD0246887ECB7EF3
:1026800040EA03201278032A05D10A7D497D42EAF7
:10269000012140EA01407047FDF75CFE3D484021C2
:1026A0000180802101803B498015891E0880FDF74B
:1026B000B1FD39A0FEF7E0F940A0FEF7DDF90122F7
:1026C00046A14748FFF7D2F9464C2070014646A084
:1026D000FEF7D2F920780D2815D1002211463FA02F
:1026E000FEF70EFF2070014645A0FEF7C5F9012256
:1026F0003AA10020FFF7BAF92070012237A138482B
:10270000FFF7B4F920700B2243A14C48FFF7D4F92E
:10271000207001464AA0FEF7AFF9324B12221B1D72
:102720004CA14648FFF783FB2070014612224EA0C1
:102730006368FEF7A1F94148FEF7D3FE2070014619
:1027400053A0FEF799F9012256A13C48FFF7B4F9CE
:102750002070014657A0FEF78FF9224B1222083352
:102760005A493648FFF758FA2070014658A0A26827
:10277000FEF782F95EA0FEF77FF9544962A0FEF7EA
:102780007BF92E48FEF7ADFE2070014661A0FEF7F2
:1027900073F9FEE71A0802400D0A20BBB6D3ADCA92
:1027A000B9D3C3202053544D333220463430372020
:1027B000BFAAB7A2B0E5A1A30D0A00000D0A20D55B
:1027C000E2CAC7D2BBB8F6CEC4BCFECFB5CDB3D239
:1027D000C6D6B2CAB5D1E9200D0A0000313A0000D0
:1027E00030000020100000200D0A20665F6D6F751C
:1027F0006E745F726573203D202564200D0A000011
:102800000D0A20665F6D6B66735F726573203D20F5
:102810002564200D0A000000313A61626364656638
:102820006768696A6B6C6D6E6F70717273747576C0
:102830007778797A2E747874000000006010002098
:102840000D0A20CEC4BCFEB4F2BFAA203D202564F0
:10285000200D0A004661744673CEC4BCFEB9DCC0CC
:10286000EDB2E2CAD40000000D0A20CEC4BCFED0F6
:10287000B4C8EB203D202564096C656E203D202501
:1028800064096277203D202564200D0A00000000C5
:102890000D0A20CEC4BCFEB9D8B1D5203D20256498
:1028A000200D0A00313A6D6573736167652E747887
:1028B000740000000D0A20665F6F70656E5F7265C0
:1028C00073203D202564200D0A0000008420002094
:1028D0000D0A20665F726561645F726573203D203A
:1028E0002564096272203D202564200D0A00000045
:1028F0000D0A20B6C1C8A1B5BDB5C4CEC4BCFEC4C6
:10290000DAC8DDA3BA0D0A000D0A202573200D0ACE
:10291000000000000D0A20665F636C6F73655F72D4
:102920006573203D20256420B2E2CAD4BDE1CAF817
:10293000200D0A0010B50023521E541C05D010F8BB
:10294000013B11F8014B1B1BF6D0184610BD03E0EC
:1029500011F8013B00F8013B521E531CF8D170479F
:10296000C9B201E000F8011B521E531CFAD1704796
:1029700070B504460E460025E06AB04210D02046ED
:1029800000F048F905465DB960780123324604F14C
:102990003001FEF765FD10B14FF0FF360125E6620C
:1029A000284670BD2DE9F04704460D461646022D17
:1029B00002D36069A84202D80220BDE8F0872078DF
:1029C00006F0FF094FF00108012805D0022842D087
:1029D00003285AD00220F0E705EB55076089216AE9
:1029E000B7FBF0F001442046FFF7C2FF0028E4D116
:1029F000384661897F1CB0FBF1F201FB12002044D4
:102A00003030E90703D0017869F31F1100E0314647
:102A1000017084F804806089216AB7FBF0F00144FA
:102A20002046FFF7A5FF0028C7D16189B7FBF1F267
:102A300001FB127121443031EA0702D0C6F30712BC
:102A400005E00A78C6F3032302F0F0021A430A7085
:102A500084F80480B1E76089216A4008B5FBF0F092
:102A600001442046FFF784FF0028A6D1628969004F
:102A7000B1FBF2F302FB1311214481F83090320ACA
:102A800081F8312084F8048097E76089216A800802
:102A9000B5FBF0F001442046FFF76AFF00288CD117
:102AA0006289A900B1FBF2F302FB1311214430311A
:102AB0004FF07043CA7803EA026232430A70130A85
:102AC0004B70130C8B70120ECA7084F8048074E77C
:102AD0002DE9F04104460F46022F02D36069B84247
:102AE00001D8022624E000261FE039462046FFF7E1
:102AF00021FD0546E5B1012D09D0681C09D0002251
:102B000039462046FFF74EFF06468EB903E00226FF
:102B10000EE001260CE02069411C05D0401C20611C
:102B2000607940F0010060712F466069B842DCD8DE
:102B30003046BDE8F08181760A0AC2760A0C027539
:102B4000090E41757047014600200B22430803EB34
:102B5000C01011F8013B1844C0B2521EF6D17047A4
:102B600070B50446204600F055F8054628004FD1C0
:102B70002078032845D16079012842D104F1300042
:102B8000628900210646FFF7EBFE552084F82E02ED
:102B9000AA2084F82F02522084F8300084F83100F3
:102BA000612084F83200412184F83310722284F8C5
:102BB000142284F8152284F8161284F8170220696A
:102BC00084F81802010A84F81912010C84F81A1208
:102BD000000E84F81B02E06884F81C02010A84F8E5
:102BE0001D12010C84F81E12000E84F81F02E26907
:102BF000521CE262607801233146FEF753FC00204C
:102C00006071002260781146FEF70BFC00B10125CF
:102C1000284670BD2DE9F0410446002720790028A0
:102C20001FD0E66A04F130016078012332468846FD
:102C3000FEF738FC08B1012713E000202071206A5C
:102C4000A169301A88420CD2E57808E0A0690644F0
:102C50006078012332464146FEF724FC6D1E022DAA
:102C6000F4D23846BDE8F08110B500280CD00168D8
:102C700051B10A7842B1CA888088824204D148782A
:102C8000FEF7FFFBC00701D0092010BD002010BDDA
:102C9000809A45418E418F804545454949498E8FEF
:102CA0009092924F994F555559999A9B9C9D9E9FF2
:102CB00041494F55A5A5A6A7A8A9AAABACADAEAFF3
:102CC000B0B1B2B3B4B5B6B7B8B9BABBBCBDBEBF8C
:102CD000C0C1C2C3C4C5C6C7C8C9CACBCCCDCECF7C
:102CE000D0D1D2D3D4D5D6D7D8D9DADBDCDDDEDF6C
:102CF000E0E1E2E3E4E5E6E7E8E9EAEBECEDEEEF5C
:102D0000F0F1F2F3F4F5F6F7F8F9FAFBFCFDFEFF4B
:102D100001030507090E10121416181C1E000004EA
:102D200000020001800040002000100008000400A4
:102D30000200000000800040002000100008004059
:102D400000200010000800040002C700FC00E90099
:102D5000E200E400E000E500E700EA00EB00E80044
:102D6000EF00EE00EC00C400C500C900E600C6009C
:102D7000F400F600F200FB00F900FF00D600DC00D2
:102D8000A200A300A500A7209201E100ED00F3003E
:102D9000FA00F100D100AA00BA00BF001023AC0075
:102DA000BD00BC00A100AB00BB009125922593257E
:102DB00002252425612562255625552563255125A3
:102DC00057255D255C255B251025142534252C25EC
:102DD0001C2500253C255E255F255A25542569259F
:102DE0006625602550256C256725682564256525A1
:102DF00059255825522553256B256A2518250C255C
:102E0000882584258C2590258025B103DF00930338
:102E1000C003A303C303B500C403A6039803A90317
:102E2000B4031E22C603B50329226122B100652224
:102E3000642220232123F7004822B0001922B70082
:102E40001A227F20B200A025A000E000E100E200ED
:102E5000E300E400E500E600E700E800E900EA003E
:102E6000EB00EC00ED00EE00EF00F000F100F200EE
:102E7000F300F400F500F600F800F900FA00FB009A
:102E8000FC00FD00FE00FF00010103010501070138
:102E900009010B010D010F011101130115011701AA
:102EA00019011B011D011F0121012301250127011A
:102EB00029012B012D012F0131013301350137018A
:102EC0003A013C013E0140014201440146014801F2
:102ED0004B014D014F01510153015501570159015A
:102EE0005B015D015F0161016301650167016901CA
:102EF0006B016D016F0171017301750177017A0139
:102F00007C017E018301850188018C019201990178
:102F1000A101A301A801AD01B001B401B601B9013D
:102F2000BD01C601C901CC01CE01D001D201D4013D
:102F3000D601D801DA01DC01DD01DF01E101E301A5
:102F4000E501E701E901EB01ED01EF01F301F50115
:102F5000FB01FD01FF010102030205020702090254
:102F60000B020D020F021102130215021702B10328
:102F7000B203B303B403B503B603B703B803B9038D
:102F8000BA03BB03BC03BD03BE03BF03C003C1033D
:102F9000C303C403C503C603C703C803C903CA03E5
:102FA000CB03CC03CD03CE03E303E503E703E9033F
:102FB000EB033004310432043304340435043604A2
:102FC0003704380439043A043B043C043D043E040D
:102FD0003F044004410442044304440445044604BD
:102FE0004704480449044A044B044C044D044E046D
:102FF0004F0452045304540455045604570458040F
:1030000059045A045B045C045E045F0461046304B5
:103010006504670469046B046D046F047104730430
:103020007504770479047B047D047F048104910492
:1030300093049504970499049B049D049F04A104A0
:10304000A304A504A704A904AB04AD04AF04B10410
:10305000B304B504B704B904BB04BD04BF04C2047F
:10306000C404C804D104D304D504D704D904DB04B0
:10307000DD04DF04E104E304E504E704E904EB0410
:10308000ED04EF04F104F304F504F90461056205AD
:1030900063056405650566056705680569056A05D4
:1030A0006B056C056D056E056F0570057105720584
:1030B00073057405750576057705780579057A0534
:1030C0007B057C057D057E057F05800581058205E4
:1030D0008305840585058605011E031E051E071E42
:1030E000091E0B1E0D1E0F1E111E131E151E171E70
:1030F000191E1B1E1D1E1F1E211E231E251E271EE0
:10310000291E2B1E2D1E2F1E311E331E351E371E4F
:10311000391E3B1E3D1E3F1E411E431E451E471EBF
:10312000491E4B1E4D1E4F1E511E531E551E571E2F
:10313000591E5B1E5D1E5F1E611E631E651E671E9F
:10314000691E6B1E6D1E6F1E711E731E751E771E0F
:10315000791E7B1E7D1E7F1E811E831E851E871E7F
:10316000891E8B1E8D1E8F1E911E931E951E971EEF
:10317000991E9B1E9D1E9F1EA11EA31EA51EA71E5F
:10318000A91EAB1EAD1EAF1EB11EB31EB51EB71ECF
:10319000B91EBB1EBD1EBF1EC11EC31EC51EC71E3F
:1031A000C91ECB1ECD1ECF1ED11ED31ED51ED71EAF
:1031B000D91EDB1EDD1EDF1EE11EE31EE51EE71E1F
:1031C000E91EEB1EED1EEF1EF11EF31EF51EF71E8F
:1031D000F91E7021712172217321742175217621CC
:1031E0007721782179217A217B217C217D217E2103
:1031F0007F2141FF42FF43FF44FF45FF46FF47FF5A
:1032000048FF49FF4AFF4BFF4CFF4DFF4EFF4FFF6A
:1032100050FF51FF52FF53FF54FF55FF56FF57FF1A
:1032200058FF59FF5AFFC000C100C200C300C400CC
:10323000C500C600C700C800C900CA00CB00CC004A
:10324000CD00CE00CF00D000D100D200D300D400FA
:10325000D500D600D800D900DA00DB00DC00DD00A4
:10326000DE007801000102010401060108010A01E3
:103270000C010E01100112011401160118011A01AE
:103280001C011E01200122012401260128012A011E
:103290002C012E01300132013401360139013B018C
:1032A0003D013F0141014301450147014A014C01F4
:1032B0004E01500152015401560158015A015C015E
:1032C0005E01600162016401660168016A016C01CE
:1032D0006E01700172017401760179017B017D013B
:1032E0008201840187018B0191019801A001A20153
:1032F000A701AC01AF01B301B501B801BC01C40124
:10330000C701CA01CD01CF01D101D301D501D70138
:10331000D901DB018E01DE01E001E201E401E601F9
:10332000E801EA01EC01EE01F101F401FA01FC010E
:10333000FE01000202020402060208020A020C0256
:103340000E0210021202140216029103920393035A
:103350009403950396039703980399039A039B0399
:103360009C039D039E039F03A003A103A303A40347
:10337000A503A603A703A803A903AA03AB038C0311
:103380008E038F03E203E403E603E803EA03100479
:103390001104120413041404150416041704180469
:1033A00019041A041B041C041D041E041F04200419
:1033B00021042204230424042504260427042804C9
:1033C00029042A042B042C042D042E042F040204A7
:1033D00003040404050406040704080409040A0499
:1033E0000B040C040E040F046004620464046604FD
:1033F00068046A046C046E04700472047404760435
:1034000078047A047C047E0480049004920494047A
:10341000960498049A049C049E04A004A204A404A4
:10342000A604A804AA04AC04AE04B004B204B40414
:10343000B604B804BA04BC04BE04C104C304C7057E
:10344000D004D204D404D604D804DA04DC04DE04A4
:10345000E004E204E404E604E804EA04EC04EE0414
:10346000F004F204F404F8043105320533053405A0
:10347000350536053705380539053A053B053C0560
:103480003D053E053F054005410542054305440510
:10349000450546054705480549054A054B054C05C0
:1034A0004D054E054F055005510552055305540570
:1034B00055055605001E021E041E061E081E0A1E85
:1034C0000C1E0E1E101E121E141E161E181E1A1E74
:1034D0001C1E1E1E201E221E241E261E281E2A1EE4
:1034E0002C1E2E1E301E321E341E361E381E3A1E54
:1034F0003C1E3E1E401E421E441E461E481E4A1EC4
:103500004C1E4E1E501E521E541E561E581E5A1E33
:103510005C1E5E1E601E621E641E661E681E6A1EA3
:103520006C1E6E1E701E721E741E761E781E7A1E13
:103530007C1E7E1E801E821E841E861E881E8A1E83
:103540008C1E8E1E901E921E941E961E981E9A1EF3
:103550009C1E9E1EA01EA21EA41EA61EA81EAA1E63
:10356000AC1EAE1EB01EB21EB41EB61EB81EBA1ED3
:10357000BC1EBE1EC01EC21EC41EC61EC81ECA1E43
:10358000CC1ECE1ED01ED21ED41ED61ED81EDA1EB3
:10359000DC1EDE1EE01EE21EE41EE61EE81EEA1E23
:1035A000EC1EEE1EF01EF21EF41EF61EF81E60212A
:1035B00061216221632164216521662167216821DF
:1035C00069216A216B216C216D216E216F2121FF00
:1035D00022FF23FF24FF25FF26FF27FF28FF29FFC7
:1035E0002AFF2BFF2CFF2DFF2EFF2FFF30FF31FF77
:1035F00032FF33FF34FF35FF36FF37FF38FF39FF27
:103600003AFF0000243600080000002030000000CF
:10361000980A00085436000830000020B826000040
:10362000A80A0008000000000102030401020304CC
:10363000060708090000000000000000000000006C
:1036400000A00000000000000000000000000000DA
:043650000000000076
:040000050800018965
:00000001FF
